:100000000C94D4000C94FC000C94FC000C94FC00A8
:100010000C94FC000C94FC000C94FC000C94FC0070
:100020000C94FC000C94FC000C94420B0C94B10B4F
:100030000C94FC000C94FC000C94FC000C94FC0050
:100040000C94FC000C94FC000C94FC000C94FC0040
:100050000C94FC000C94FC000C94FC000C94E30D3C
:100060000C94FC000C94FC000C94FC000C94FC0020
:100070000C94FC000C94FC000C94FC000C94FC0010
:100080000C94FC000C94FC000C94FC000C94FC0000
:100090000C94FC000C94FC000C94FC000C94FC00F0
:1000A0000C94FC000C94FC000C94FC00000000007C
:1000B000250028002B002E00310000000000240045
:1000C00027002A002D003000000000002300260039
:1000D00029002C002F000404040404030405020278
:1000E00002020403020202020606060606060404D1
:1000F0000202020404040802011040804010204063
:10010000804080080204018040201002011080100D
:10011000204040200000000200090F0000030401FD
:10012000000C0000000000000000000000000000C3
:10013000000000080B000202020000090400000198
:10014000020200000524001001052401010104241D
:10015000020605240600010705810310004009047A
:100160000100020A00000007050202400000070526
:1001700083024000000403090412010002EF02019F
:100180004041233780000101020301417264756917
:100190006E6F204C4C430041726475696E6F204D48
:1001A0006963726F00002D0E11241FBECFEFDAE0DD
:1001B000DEBFCDBF23E0A0EFB1E001C01D92A83AA1
:1001C000B207E1F711E0A0E0B1E0E0EBFBE202C032
:1001D00005900D92A03FB107D9F710E0C4EDD0E033
:1001E00004C02197FE010E948B14C33DD107C9F7BB
:1001F0000E94620E0C94D6150C9400009091F502AA
:100200008917F0F49091F6026917D0F490E0880F06
:10021000991F2091F3023091F402820F931FDC01A9
:10022000ED91FC91B6E06B9FE00DF11D1124228150
:10023000338181E02115310529F02330310511F09A
:1002400080E0089508950F931F93CF931092F702C3
:100250001092F8021092FC021092FB027091F602CA
:10026000C091F5022091F3023091F40250E040E099
:1002700080E060E07817E1F0D90190E0C917A1F0C3
:10028000ED91FD91E40FF51F0281138101301105FD
:1002900049F013821282611105C09093F702809396
:1002A000F80261E09F5FEACF8F5F4A5F5F4FE2CF66
:1002B0008091F70290E0880F991F820F931F209181
:1002C000F802DC01ED91FC91B6E02B9FE00DF11DF1
:1002D000112483E090E093838283CF911F910F914B
:1002E00008959091F5028917D8F49091F602691754
:1002F000B8F490E0880F991F2091F3023091F40236
:10030000820F931FDC01ED91FC91B6E06B9FE00D35
:10031000F11D112481E0228133812330310509F060
:1003200080E00895CF93DF93C091F802D091F70257
:100330006C2F8FEF8D0F0E9471018823B1F08D2FEC
:1003400090E081509048880F991F2091F3023091DE
:10035000F402820F931FDC01ED91FC91B6E0CB9F7C
:10036000E00DF11D1124138212826C2F81E08D0F9C
:100370000E9471018823A9F08D2F90E00196880FCB
:10038000991F2091F3023091F402820F931FDC0138
:10039000ED91FC91B6E0CB9FE00DF11D112413828D
:1003A00012826FEF6C0F8D2F0E9471018823A9F0CC
:1003B0008D2F90E0880F991FE091F302F091F402E5
:1003C000E80FF91F0190F081E02D86E0C89FE00D55
:1003D000F11D112436971382128261E06C0F8D2F6C
:1003E0000E9471018823D9F08D2F90E0880F991F0A
:1003F0002091F3023091F402820F931F6C2F70E072
:100400006F5F7F4F46E0469F9001479F300D11245C
:10041000DC01ED91FC91E20FF31F13821282DF9158
:10042000CF910895FB01DC016C91862F880F880F16
:10043000880F35E5282F239F020E20E0211D11246F
:10044000922F562F5074462F407267FD2EC05111C7
:100450000FC0822F80954423B9F09B5A30E08BEA7D
:1004600028EC482F429F040E40E0411D842F18C005
:10047000411113C0382F2AEA329F030E30E0311D9C
:1004800011248BEA831B965530E08111E9CF30E0CF
:1004900091112EC050E0892F3CC080E0322F909502
:1004A000911126C0582F80E02BC0511116C0411168
:1004B0000CC0382F2AEA329F030E30E0311D112480
:1004C0009BEA931B3B5A80E0EBCF322F3095822F73
:1004D00050E08823A9F090E0C3CF411105C085E525
:1004E000820F3BEA321BF4CF8AEA820F90E0FACF08
:1004F000292F48EC249F020E20E0211D582F822F27
:1005000090E0332331F028EC329F030E30E0311DB0
:10051000932F112427E3229F020E20E0211D112496
:1005200038EC40E0332321F0339F412D09F04F5F39
:10053000342F4423E1F0322F350F21F0349F030E86
:1005400030E0311D820F31F0582F549F050E50E0DE
:10055000511D852F920F31F0292F249F020E20E08C
:10056000211D922F1124308381839283089590E07E
:1005700080E0F9CFFC018091F202882311F13FB7AE
:10058000F89482E08093E9002091F200822F90E0BD
:100590001816190614F481E090E0882339F0289A9F
:1005A00044E64093F1024091F1004083222339F068
:1005B0002091F200211103C02BE62093E8003FBFF9
:1005C00008958FEF9FEF08952FB7F89483E08093FD
:1005D000E9009091E800892F807295FF04C0909106
:1005E000F20080E4891B2FBF08958091E9028111F8
:1005F0000DC082E08093E50284E08093E6021092D1
:10060000E8021092E70281E08093E90285EE92E031
:1006100008954091DF025091E0022091DD02309177
:10062000DE0242175307B4F49091E8009570E1F3AD
:100630009091E80092FD19C08093F1008091DF0253
:100640009091E00201968F739927892B19F48EEF10
:100650008093E8008091DF029091E00201969093F0
:10066000E0028093DF0281E0089580E00895EF9238
:10067000FF920F931F93CF93DF93F82E192FE62E3F
:10068000042F81E0860F880F0E94090383E00E94F7
:100690000903CF2DD12FEC0EFD2EF11CCE15DF0559
:1006A000B9F007FF13C0FE0184910E940903182FBF
:1006B00080E00E940903812321968111EFCFDF9111
:1006C000CF911F910F91FF90EF9008958881EDCF0A
:1006D00081E0F5CFDF92EF92FF920F931F93CF93BC
:1006E000DF93D82E8A01EB017B01E40EF51ECE15B7
:1006F000DF0559F0D7FE12C0FE0184910E94090364
:1007000021968111F4CF0FEF1FEFC801DF91CF9138
:100710001F910F91FF90EF90DF9008958881EECFA9
:100720000F931F93CF93DF931F92CDB7DEB782E075
:10073000898342E450E063E371E080E80E946A0349
:100740000E94F502DC0112960D911C910115110514
:1007500089F0D801ED91FC910280F381E02DBE017A
:100760006F5F7F4FC801099597FD04C0F8010085B0
:100770001185ECCF89810F90DF91CF911F910F915F
:100780000895615030F02091F100FC012083019622
:10079000F8CF289A84E68093F102089580E991E0E9
:1007A0000895CF93DF931F92CDB7DEB76983DC0145
:1007B000ED91FC910280F381E02D41E050E0BE011B
:1007C0006F5F7F4F09950F90DF91CF91089583E080
:1007D0008093E9008091F200882319F08AE38093E6
:1007E000E80008950E94E40290E00895CF93DF931B
:1007F0001F92CDB7DEB7FC018485958597FD08C0B3
:100800002FEF3FEF358724870F90DF91CF91089529
:10081000CE0101960E94BA02019719F4898190E0F5
:10082000F3CF8FEF9FEFF0CF0F931F93CF93DF9313
:100830001F92CDB7DEB78C01FC018485958597FFAB
:100840000BC0CE0101960E94BA02019771F4898112
:1008500090E0F80195878487F801848595850F904D
:10086000DF91CF911F910F9108958FEF9FEFF1CFFF
:10087000FC018485958597FD0BC09FB7F89482E0B5
:100880008093E9008091F2009FBF90E00196089567
:100890009FB7F89482E08093E9008091F2009FBFB7
:1008A00090E00895282F30E0F901EC5EFE4F94911E
:1008B000F901EB50FF4F84912A523F4FF9012491E7
:1008C000222309F45BC09923E9F091509F30D0F4C2
:1008D000E92FF0E0E259FB4F0C948B1499049D042E
:1008E0007D0491049504820482048204A004A60479
:1008F000AA04AE04B4048204B804909180009F77E7
:1009000090938000E22FF0E0EE0FFF1FE853FF4FBF
:10091000A591B491EC91E82381E090E089F580E025
:100920000895909180009F7DEBCF90918000977FFC
:10093000E7CF94B59F7794BDE5CF94B59F7DFBCF6E
:10094000909190009F7790939000DCCF90919000D1
:100950009F7DF9CF90919000977FF5CF9091C00047
:100960009F779093C000CECF9091C0009F7DF9CF2C
:100970009091C200977F9093C200C4CF80E090E036
:100980000895CF93DF9390E0FC01EB50FF4F24914B
:100990008A529F4FFC0184918823D1F090E0880F08
:1009A000991FFC01E654FF4FA591B491FC01E45559
:1009B000FF4FC591D491623071F49FB7F8943C9188
:1009C000822F809583238C93E8812E2B28839FBFD1
:1009D000DF91CF9108958FB7F894EC912E2B2C9343
:1009E0008FBFF6CF3FB7F8948091F7019091F8014F
:1009F000A091F901B091FA0126B5A89B05C02F3F3F
:100A000019F00196A11DB11D3FBFBA2FA92F982F34
:100A10008827BC01CD01620F711D811D911D42E02F
:100A2000660F771F881F991F4A95D1F708958F92F7
:100A30009F92AF92BF92CF92DF92EF92FF924B01C3
:100A40005C010E94F2046B017C010E94F2046C19AB
:100A50007D098E099F09683E734081059105A8F3C1
:100A600021E0821A9108A108B10888EEC80E83E03F
:100A7000D81EE11CF11C81149104A104B10429F7D2
:100A8000FF90EF90DF90CF90BF90AF909F908F90AE
:100A900008958F929F92AF92BF92CF92DF92EF9282
:100AA000FF920F931F93CF93DF936C017B018A0119
:100AB00080913C01882309F45CC08091F202882374
:100AC00009F457C08091E30280FF05C08091E000E7
:100AD00082608093E000E801B12C8AEFA82E93E0B9
:100AE000892E2AE3922E209711F4BB20D9F10E947F
:100AF000E40281110AC0AA94AA20D9F161E070E051
:100B000080E090E00E941705EECF8C171D0611F0D3
:100B10000CF08C2F9FB7F8948092E9002091E800A8
:100B200025FD02C09FBFDFCF282F30E0C21BD30BB3
:100B3000F701815020F041914093F100FACFE20E8D
:100B4000F31EBB2021F09092E800B12CEBCF8091F6
:100B5000E80085FDE7CF9092E800BB24B39420978E
:100B600009F3F3CF5D9A84E68093E4021016110630
:100B70003CF081E090E0F6019383828310E000E096
:100B8000C801DF91CF911F910F91FF90EF90DF90FF
:100B9000CF90BF90AF909F908F9008952FB7F8940B
:100BA0006091F3017091F4018091F5019091F6014B
:100BB0002FBF08950F931F93CF93DF932091F101DF
:100BC0002F5F322F37703093F10120FF2BC020E8C8
:100BD00031FD2064347009F02062205FFC01EC01DB
:100BE000239600E011E06485662329F070E0C801D7
:100BF0000E9477146F5F6187322F369F030E30E0BB
:100C0000311D1124311110C01682662311F061507C
:100C100061873196EC17FD0731F7DF91CF911F9176
:100C20000F91089520E0D4CF31503683EECF4F920C
:100C30005F926F927F928F92AF92BF92CF92DF922C
:100C4000EF920F931F93CF93DF933C01EB010E9430
:100C5000F204F30127853089621B730B6A3071053A
:100C6000B0F3F894E881F9817BB172606BB16D7F6C
:100C70006BB9CA848F812C2D281B822F2F83BF84B0
:100C80004A805B801D850C85DE841F5F0F5FD394D7
:100C90009E813885A984EB844181D20120E0C32F55
:100CA000522F322F3181442788943111380F08F4A4
:100CB0003FEF8195889410FD430F4795889411FD6F
:100CC000430F4795889412FD430F4795889413FD71
:100CD000430F4795889414FD430F4795889415FD5D
:100CE000430F4795889416FD430F4795889417FD49
:100CF000430F47958894232F1111242F8C0D422FD9
:100D0000002C7BB900C000C047FF6BB9308122279F
:100D1000889400C0002C6BB93111390F00C0002C31
:100D20007BB900C000C046FF6BB908F43FEF919556
:100D3000889400C0002C6BB900FD230F00C0002C6C
:100D40007BB900C000C045FF6BB92795889401FDB1
:100D5000230F00C0002C6BB92795889400C0002C8D
:100D60007BB900C000C044FF6BB902FD230F27957B
:100D7000889400C0002C6BB903FD230F00C0002C29
:100D80007BB900C000C043FF6BB92795889404FD70
:100D9000230F00C0002C6BB92795889400C0002C4D
:100DA0007BB900C000C042FF6BB905FD230F27953A
:100DB000889400C0002C6BB906FD230F00C0002CE6
:100DC0007BB900C000C041FF6BB92795889407FD2F
:100DD000230F00C0002C6BB92795889400C0002C0D
:100DE0007BB900C000C040FF6BB9432F0111422FF7
:100DF0009A0D00C0002C6BB900C000C0002C7BB95C
:100E000000C000C047FF6BB932812227889400C020
:100E1000002C6BB931113C0F00C0002C7BB900C015
:100E200000C046FF6BB908F43FEFEB0DF11D00C0A9
:100E3000002C6BB9D0FC230F00C0002C7BB900C084
:100E400000C045FF6BB927958894D1FC230F00C0E3
:100E5000002C6BB92795889400C0002C7BB900C08A
:100E600000C044FF6BB9D2FC230F2795889400C0C3
:100E7000002C6BB9D3FC230F00C0002C7BB900C041
:100E800000C043FF6BB927958894D4FC230F00C0A2
:100E9000002C6BB92795889400C0002C7BB900C04A
:100EA00000C042FF6BB9D5FC230F2795889400C082
:100EB000002C6BB9D6FC230F00C0002C7BB900C0FE
:100EC00000C041FF6BB927958894D7FC230F00C061
:100ED000002C6BB92795889400C0002C7BB900C00A
:100EE00000C040FF6BB9432FD110422FC19500C005
:100EF000002C6BB9CE0D00C000C07BB900C000C093
:100F000047FF6BB931812227889400C0002C6BB950
:100F10003111380F00C0002C7BB900C000C046FF63
:100F20006BB908F43FEF8195889400C0002C6BB931
:100F300010FD230F00C0002C7BB900C000C045FF8E
:100F40006BB92795889411FD230F00C0002C6BB955
:100F50002795889400C0002C7BB900C000C044FFD6
:100F60006BB912FD230F2795889400C0002C6BB934
:100F700013FD230F00C0002C7BB900C000C043FF4D
:100F80006BB92795889414FD230F00C0002C6BB912
:100F90002795889400C0002C7BB900C000C042FF98
:100FA0006BB915FD230F2795889400C0002C6BB9F1
:100FB00016FD230F00C0002C7BB900C000C041FF0C
:100FC0006BB92795889417FD230F00C0002C6BB9CF
:100FD0002795889400C0002C7BB900C000C040FF5A
:100FE0006BB9432F1111422F8C0D00C0002C6BB92F
:100FF000119709F086CE20EE31E0D2010E949114C3
:10100000DC01CB01F4E0B695A79597958795FA9505
:10101000D1F730E020E0B901EAE94E9E040C611DF1
:101020005E9E600D711D1124650D711D860F971F49
:10103000A11DB11D893E43E09407A105B10508F447
:1010400034C0885E9340A109B10942E0B695A795E6
:10105000979587954A95D1F747E0849F080E211D03
:10106000949F200D311D1124290F311D6091F00135
:1010700070E0860F971F820F931F4091F3015091EC
:10108000F4016091F5017091F601292F3327420F89
:10109000531F611D711D4093F3015093F401609340
:1010A000F5017093F6018093F00178940E94F204A8
:1010B000F301708B6787DF91CF911F910F91EF90B4
:1010C000DF90CF90BF90AF908F907F906F905F90A8
:1010D0004F900895519A08950F931F93CF93DF93E4
:1010E000CDB7DEB762970FB6F894DEBF0FBECDBFA7
:1010F0008C01F901DC011C968C917A8369835C83F5
:101100004B835E834D8390819D8791819E879281E1
:101110009F878130F1F4CE0101960E94DA0583E0C9
:10112000888B1A8A198AD801ED91FC910484F5857F
:10113000E02DBE016F5F7F4FC801099562960FB623
:10114000F894DEBF0FBECDBFDF91CF911F910F91FD
:1011500008951C861B861A86198618861F82DFCF83
:101160000F931F93CF93DF93CDB7DEB762970FB680
:10117000F894DEBF0FBECDBF8C01F901DC011C96D7
:101180008C917A8369835C834B835E834D839081EA
:101190009D8791819E8792819F878130E9F4CE015E
:1011A00001960E94DA05188A1A8A198AD801ED91E7
:1011B000FC910484F585E02DBE016F5F7F4FC8016F
:1011C000099562960FB6F894DEBF0FBECDBFDF91D2
:1011D000CF911F910F9108951C861B861A86198640
:1011E00018861F82E0CF90E080E00895FC0185859D
:1011F00096850895CF93DF9300D000D000D0CDB76F
:10120000DEB7AB011C821D821E82DC01ED91FC91D8
:101210000190F081E02D19821A821B829E012F5FBE
:101220003F4FBE016C5F7F4F099526960FB6F8942D
:10123000DEBF0FBECDBFDF91CF910895CF92DF9279
:10124000EF92FF921F93CF93DF93EC010E94CE05A4
:10125000C880D980EA80FB80DC01CB018C199D0914
:10126000AE09BF09CC80DD80EE80FF8011E08C15D7
:101270009D05AE05BF0508F410E08C159D05AE0573
:10128000BF0530F00E94CE05688379838A839B83F3
:10129000812FDF91CF911F91FF90EF90DF90CF9042
:1012A0000895FC0101900020E9F73197AF01481B38
:1012B000590BBC0181E093E00C944905CF93DF9377
:1012C0000E945109EC018FEA91E00E9451098C0FB4
:1012D0009D1FDF91CF9108958F929F92AF92BF9201
:1012E000CF92DF92EF92FF920F931F93CF93DF93F2
:1012F000CDB7DEB7A1970FB6F894DEBF0FBECDBF56
:10130000C090FB02D090FC020D2C000CEE08FF08F0
:10131000F7FE89C06DE281E093E00E94D1032227AD
:101320003327A9012C193D094E095F0919A2CE01E5
:1013300081967C011AE0812E912CA12CB12CCA013E
:10134000B901A50194010E943B14605DD7016E9321
:101350007D01211531054105510589F7E114F1049D
:1013600019F0C7010E9451098091FB029091FC0283
:10137000019709F07EC082EB91E00E945E09E09047
:10138000F8021091F702FF24F394F10E6E2D8F2DC9
:101390000E94FE00B82EA82EDD24DA94D10E6E2D08
:1013A0008D2D0E94FE00982E882319F0AA24A39464
:1013B000AB0CCC24C394CE0C6C2D812F0E94FE006C
:1013C000882E8111A3940FEF0E0D602F812F0E94A4
:1013D000FE00811161C0A1105FC089EB91E00E9405
:1013E0005E096091F6027091F5021091F30200918E
:1013F000F40220E090E080E043E050E0621789F1E1
:10140000E12FF02F30E0731749F1A191B191A80FAE
:10141000B91F12960D90BC91A02DAB2B11F442E098
:1014200050E03F5FF0CFA701960119A2FE01B196EF
:101430007F01BAE08B2E912CA12CB12CCA01B901ED
:10144000A50194010E943B14605DD7016E937D015C
:10145000211531054105510589F780CF2F5F06968B
:10146000CDCF5093FC024093FB021092F7021092F2
:10147000F802A1960FB6F894DEBF0FBECDBFDF9184
:10148000CF911F910F91FF90EF90DF90CF90BF9081
:10149000AF909F908F9008952091FF0230910003AC
:1014A0002115310509F077C0BB20B9F0812F90E0FC
:1014B0000196880F991F2091F3023091F402820F58
:1014C000931FDC01ED91FC91B6E0EB9EE00DF11D68
:1014D000112483E090E0938382836E2D8D2D0E94F2
:1014E000FE008823C1F0812F90E081509048880F42
:1014F000991F2091F3023091F402820F931FDC01B7
:10150000ED91FC91B6E0EB9EE00DF11D112483E01E
:1015100090E0938382836C2D812F0E94FE008823AC
:10152000D9F0812F90E0880F991FA091F302B0911C
:10153000F402A80FB91F8E2D90E0019646E0489F57
:101540009001499F300D1124ED91FC91E20FF31FA2
:1015500083E090E093838283602F812F0E94FE00BE
:10156000882309F486CF812F90E0880F991FE0919E
:10157000F302F091F402E80FF91F0190F081E02DE1
:1015800086E0E89EE00DF11D1124369783E090E09F
:10159000938382836ECF2230310509F441C0E8F491
:1015A0002130310509F065CF8823A9F10093F802B5
:1015B000812F90E0880F991FE091F302F091F402DF
:1015C000E80FF91F0190F081E02D96E0099FE00DF2
:1015D000F11D112484E090E0DBCF24303105B9F116
:1015E0002830310509F045CFBB20A9F0F092F70271
:1015F0008F2D90E0880F991F2091F3023091F40213
:10160000820F931FDC01ED91FC91B6E0EB9EE00DA3
:10161000F11D1124DFCF109200031092FF0229CF99
:101620008820C9F3C092F802812F90E0880F991F9B
:101630002091F3023091F402820F931FDC01ED91AF
:10164000FC91B6E0CB9EE00DF11D1124C3CF992093
:1016500011F3D092F7028D2D90E0880F991F4091E1
:10166000F3025091F402840F951FDC01ED91FC917F
:10167000B6E0EB9EE00DF11D112433832283F9CEF9
:101680000E94D1151F920F920FB60F9211248F93C3
:101690009F938091E1009091E100937F9093E1000E
:1016A00083FF0FC01092E90091E09093EB0010923D
:1016B000EC0092E39093ED001092F20298E0909388
:1016C000F00082FF22C093E09093E9009091F20035
:1016D000992319F09AE39093E8009091E4029923FA
:1016E00041F09091E40291509093E402911101C075
:1016F0005D989091F102992341F09091F1029150FF
:101700009093F102911101C0289884FF18C0809134
:10171000E2008E7E81608093E2008091E1008F7E06
:101720008093E1008091E3028E7E80618093E302EA
:101730009F918F910F900FBE0F901F90189580FF73
:10174000F7CF8091E2008E7E80618093E2008091ED
:10175000E1008E7E8093E1008091E3028E7E8160C5
:10176000E5CF1F920F920FB60F921124CF92DF9206
:10177000EF92FF920F931F932F933F934F935F939B
:101780006F937F938F939F93AF93BF93EF93FF9349
:10179000CF93DF93CDB7DEB76C97DEBFCDBF10928E
:1017A000E9008091E80083FF25C068E0CE014596FE
:1017B0000E94C10382EF8093E8008D8987FF39C0C2
:1017C0009091E80090FFFCCF982F907609F034C1FB
:1017D0009E894F89588D2F89F88C911131C080389E
:1017E00061F58091E2028093F1001092F1008EEF9A
:1017F0008093E8006C960FB6F894DEBF0FBECDBFA5
:10180000DF91CF91FF91EF91BF91AF919F918F9118
:101810007F916F915F914F913F912F911F910F9108
:10182000FF90EF90DF90CF900F900FBE0F901F9022
:1018300018959EEF9093E800C7CF1092F100D5CF96
:10184000913059F48111D3CF4130510581F6809107
:10185000E2028D7F8093E202CACF933049F4811176
:10186000C6CF4130510519F68091E2028260F2CF75
:10187000953041F48091E80080FFFCCF20682093F0
:10188000E300B5CF963009F0A9C00B8D1C8D22E086
:101890001092E9001092E0021092DF02F2122EC0C4
:1018A0001092DE021092DD020E9490031F8299E0E6
:1018B0009983FA8291E09E8390EA98879AEF9987BC
:1018C0002091DF023091E002275F3F4F3C832B8362
:1018D0008D831092E9001092E0021092DF021093C3
:1018E000DE020093DD0249E050E0BE016F5F7F4FF2
:1018F00080E00E946A030E94900379CF1093DE0279
:101900000093DD020E94F502DC0112960D911C91FC
:101910000115110509F451C1D801ED91FC91048024
:10192000F581E02DBE016B5E7F4FC80109950097E0
:1019300009F03EC1F80100851185EACFF3E0FF12FE
:101940000EC08F89882309F440C0823061F440E8DA
:101950006DE087E991E00E943703811148CF81E271
:101960008093EB0047CF813029F440E86BE08BE8AF
:1019700091E0F1CF833099F70E94F502DC011296D5
:10198000ED90FC908E010F5F1F4F6801E114F10490
:1019900079F0D701ED91FC910680F781E02DB80137
:1019A000C7010995080F111DF701E084F184EECFFE
:1019B000D8011C92F60101900020E9F73197BF0190
:1019C0006C197D0940E0C601C6CF65E771E0FB01F7
:1019D000449150E080E80E946A0309CF973009F4EF
:1019E000BECF983021F481E08093F10000CF993090
:1019F00009F0FDCE837009F0B2CFE7E9F1E081E0B4
:101A000031E096E32191222371F08093E900309335
:101A1000EB00DF0111972C912093EC009093ED00E7
:101A20008F5F873079F78EE78093EA001092EA00A3
:101A30008F898093F202DBCE8B8D9C8D1092E90012
:101A40001092E0021092DF029093DE028093DD029A
:101A5000898D811192C08E899D89913A49F4813294
:101A600009F07DCF47E050E065E371E080E0B3CF5F
:101A7000913209F074CF833269F48F89988DB0E088
:101A8000A0E08093310190933201A0933301B09391
:101A90003401ADCE803269F48091E80082FFFCCF42
:101AA00067E085E391E00E94C1038BEF8093E8003B
:101AB0009ECE823209F09BCE8F8980933C01EEEF5F
:101AC000FFE7859194918B3F9C4D51F1E0E0F8E068
:101AD0008091350190913601A0913701B091380184
:101AE000803B9440A105B105F1F480913C0180FD5B
:101AF0001AC0EE3F8AE0F80789F587E797E79183F8
:101B00008083809160008093E10288E19BE00FB6C2
:101B1000F894A895809360000FBE9093600067CE04
:101B2000EEEFFAE0D5CF808191818737974709F0B2
:101B30005ECEA8958091600088618093600080915E
:101B4000E10280936000EE3F2AE0F20789F0809185
:101B5000FE0A9091FF0A9183808349CE8081918112
:101B60008737980751F29093FF0A8093FE0AC5CFFA
:101B70001092FF0A1092FE0A3ACE0E94F502DC0192
:101B800012960D911C910115110509F4E8CED801AA
:101B9000ED91FC910190F081E02DBE016B5E7F4FD5
:101BA000C8010995811123CEF80100851185EBCF7D
:101BB000181619060CF41BCED2CEF1E0FF12BECEE1
:101BC00069E771E004CF1F920F920FB60F921124B4
:101BD0002F933F938F939F93AF93BF938091F30184
:101BE0009091F401A091F501B091F6013091F201CC
:101BF00023E0230F2D3758F50196A11DB11D209329
:101C0000F2018093F3019093F401A093F501B09356
:101C1000F6018091F7019091F801A091F901B0913E
:101C2000FA010196A11DB11D8093F7019093F8016F
:101C3000A093F901B093FA01BF91AF919F918F9159
:101C40003F912F910F900FBE0F901F90189526E88F
:101C5000230F0296A11DB11DD2CFE1E0F3E0138264
:101C6000128288EE93E0A0E0B0E084839583A6839F
:101C7000B78381EA91E0918380838FEF9FEF95870F
:101C80008487E1E5F3E08083128211821486138653
:101C90008FEF9FEFDC0187839087A187B287EEE506
:101CA000F3E0168217821086118612861386148638
:101CB000158616861786108A118A128A138A148A44
:101CC000158A0895CF93DF93CDB7DEB728970FB667
:101CD000F894DEBF0FBECDBF789484B5826084BD1A
:101CE00084B5816084BD85B5826085BD85B5816020
:101CF00085BD80916E00816080936E00109281009E
:101D00008091810082608093810080918100816058
:101D10008093810080918000816080938000809119
:101D20009100826080939100809191008160809306
:101D30009100809190008160809390008091C1001B
:101D400084608093C1008091C10082608093C10053
:101D50008091C10081608093C1008091C300816047
:101D60008093C3008091C00082608093C000809106
:101D7000C20081608093C20080917A008460809369
:101D80007A0080917A00826080937A0080917A0054
:101D9000816080937A0080917A00806880937A00D5
:101DA0001092F2021092E2021092E3028091D700A8
:101DB00081608093D70080EA8093D80089B58061E4
:101DC00089BD89B5826089BD09B400FEFDCF61E09F
:101DD00070E080E090E00E9417058091D8008F7C31
:101DE00080618093D8008091E000807F8093E00044
:101DF0008091E1008E7E8093E1008DE08093E2008F
:101E0000559A209A5D9828981092A0031092A103E9
:101E10001092A2031092A303109260031092610328
:101E200010926203109263030E94CE056B017C0145
:101E30004B015C0128EB820E2BE0921EA11CB11C11
:101E40000E94CE056C157D058E059F0528F086162F
:101E50009706A806B906A0F768EE73E080E090E068
:101E60000E9417058FEF9FEF90930E0380930D0351
:101E70000E94CE05609360037093610380936203B8
:101E8000909363038CEC91E00E9451090E94CE056F
:101E90006B017C014B015C016AE0860E911CA11C68
:101EA000B11C0E94CE056C157D058E059F0528F09E
:101EB00086169706A806B906A0F781E080937403FA
:101EC0000E94CE0560936003709361038093620368
:101ED000909363038DED91E00E94510961E08DE0E4
:101EE0000E94C10462E087E00E94C10462E085E0D4
:101EF0000E94C10462E086E00E94C10462E088E0C2
:101F00000E94C10462E089E00E94C10462E08AE0AC
:101F10000E94C1048EE090E00E94AC148C0190936A
:101F2000CC028093CB026C017EE0C70ED11C7C01F9
:101F30008AE290E00E94AC14FC019C01265D3F4FB8
:101F400010821182138212821582148236962E1705
:101F50003F07B1F7D7018D939D937D01CA16DB062C
:101F600039F790E080E030E0D80120E0ED91FD917C
:101F7000E80FF91F208331831382128215821482A5
:101F80002F5F273099F73F5F06968A32910561F7F8
:101F900080910E02811145C0109200021092FF0143
:101FA0008FEF809303028093040280930502809355
:101FB0000602809307028093080281E08093090261
:101FC00010920B0210920A02109202021092010269
:101FD00080911C0290911D02892B31F48DEF91E0CC
:101FE00090931D0280931C02E091FB01F091FC0193
:101FF000309721F08DEF91E0958384838DEF91E010
:102000009093FC018093FB0110920D0210920C0240
:1020100087E591E09093FE018093FD0181E080933C
:102020000E02519A88E392E0909300028093FF01A0
:1020300081E390E090930B0280930A028091540315
:1020400090915503A0915603B0915703843CE9E069
:102050009E07A105B10520F484EC99E0A0E0B0E072
:102060008093540390935503A0935603B093570362
:102070004091CB025091CC025093F4024093F30272
:1020800087E08093F5028093F60220E031E090E053
:1020900080E07A01FEE0EF0EF11CFA018901619106
:1020A0007191D801DD908D01DB01A80FB91F61E0AE
:1020B00070E0CC24C394DC1411F070E060E013965F
:1020C0007C936E931297EE16FF0649F7295F3F4FF8
:1020D00006968A32910509F70E94230154E1452EA4
:1020E000512C612C712C08EC8091D502811119C002
:1020F0000E94CE056093CD027093CE028093CF02F2
:102100009093D00265E070E080E090E06093D102AF
:102110007093D2028093D3029093D40281E0809393
:10212000D5028DEC92E00E941E09882309F45BC160
:1021300035E6A32E31E0B32EF12CE12C10E440E281
:10214000342E4501D12CC12CE091CB02F091CC0270
:10215000EE0DFF1D0190F081E02DEC0DFD1D848141
:102160009581059695838483828193818230910540
:1021700009F4F2C038F4019709F4ECC01C821D8206
:102180001E8211C08330910521F00497B9F739827E
:1021900001C019830A830B83BE016C5F7F4FCE01A0
:1021A00001960E941202D401EC918E2F90E0FC0166
:1021B000EE0FFF1FE80FF91FE85CFD4F8C81808355
:1021C0008D8181838E818283B6E0CB0ED11CE7E0C6
:1021D0008E0E911CFAE2CF16D10409F0B5CF2FEF85
:1021E000A21AB20A62E0E60EF11C7EE0E716F104E4
:1021F00009F0A7CF1091510380915403909155039A
:10220000A0915603B0915703892B8A2B8B2BD9F0C1
:102210000E94F204C0901E02D0901F02E0902002A3
:10222000F09021026C197D098E099F09C09054031A
:10223000D0905503E0905603F09057036C157D0540
:102240008E059F05C8F20E94F20460931E027093EF
:102250001F028093200290932102E0915C03F09191
:102260005D03309759F040915803509159036091A4
:102270005A0370915B03812F0995182FE0901C027F
:10228000F0901D02812E912CB12CA12CE114F104AF
:1022900009F465C0D7011C962C901C9780915203BD
:1022A000909153038436910510F41C961C92D7012B
:1022B000ED91FC916281738178876F8319821A8214
:1022C0001B82112399F1670176E0C70ED11CF0E063
:1022D000E0E0D6012D916D01222321F112963C9070
:1022E000332001F130E050E040E02F5F3F4F4F4F8F
:1022F0005F4FC501B4010E942B149B01AC01832DDB
:1023000090E0B0E0A0E0BC01CD016F5F7F4F8F4F48
:102310009F4F0E942B14A1E0B0E0AC0FBD1FAE0F89
:10232000BF1F8C933196E330F10599F6F70145858F
:102330005685628173819E012F5F3F4FC701EF81F8
:10234000F8850995D7011C962C921C971496ED9050
:10235000FC909CCF19821ECF70E679831BCF8091B1
:102360001A0290911B027C01BFEFEB1AFB0AF0925C
:102370001B02E0921A024997B4F10E94CE058090A8
:10238000160290901702A0901802B09019029B01BB
:10239000AC01281939094A095B0921F421E030E030
:1023A00040E050E0E8EEF3E0EE9EB001EF9E700DED
:1023B000FE9E700D1124072E000C880B990B0E94B5
:1023C0003B14309353032093520310921B0210923C
:1023D0001A020E94CE056093160270931702809332
:1023E00018029093190287E00E945204B2E0FB2E7B
:1023F000892B09F0F12C85E00E94520411E0892B11
:1024000009F010E01F2986E00E945204892B09F090
:102410003FC084E0182B88E00E945204892BD1F53C
:1024200088E0182B89E00E945204892BA9F580E1ED
:10243000182B8AE00E945204892B81F580E2182B28
:102440001093370280913602181751F1112341F190
:102450000E94CE056E5C7F4F8F4F9F4F609332027C
:102460007093330280933402909335028091370247
:10247000809336026AE070E080E090E00E941705E9
:1024800080E090E0892B09F42FCE0E9400002BCE33
:1024900080E0C0CF80E0C5CF80E0CACF80E0CFCF62
:1024A0000E94CE05C0903202D0903302E0903402F8
:1024B000F0903502C616D706E806F90608F0A6C160
:1024C000112309F4A3C1C12ED12C8091F90290915E
:1024D000FA02C816D90609F478C1E090FB02F09020
:1024E000FC02F1E0EF16F10409F4ACC050F064E036
:1024F000E616F10409F4ACC0D092FA02C092F902D7
:10250000B5CF143031F00CF04BC08FEF810F82301B
:1025100098F7E090F302F090F402E091F702F0E017
:10252000EE0FFF1FEE0DFF1D8091F8020190F0816C
:10253000E02D76E0879FE00DF11D112413821282B9
:10254000E091F502F0E02091F60230E046E0909153
:10255000F8028091F702123009F46DC00CF050C0FF
:10256000113009F45CC0A091F702B0E0AA0FBB1FC4
:10257000AE0DBF1D8091F8020D90BC91A02D849FDF
:10258000A00DB11D112412968D919C911397892B4A
:10259000F1F683E090E013969C938E931297ACCF64
:1025A000183009F4B6CF103109F0A6CF8091F702A8
:1025B00090E0880F991F2091F3023091F402820F6E
:1025C000931F2091F802DC01ED91FC91B6E02B9F66
:1025D000E00DF11D112482E090E09383828381E07D
:1025E00090E09093FC028093FB0210920003109203
:1025F000FF0284EE91E00E945E090E946C097CCF8C
:102600001430E9F090E00196183009F0ACCF8E0F4D
:102610009F1FBF010E9477148093F702A4CFA92FB8
:10262000A150BB0BCD01820F931FB9010E947714FB
:102630008093F80298CF892F90E00196F4CF8150D3
:10264000990BE5CF123009F468C054F41130C1F190
:10265000E0E1CE16D10409F04FCF0E9423014CCF08
:10266000143009F489C0183099F78091F70260910D
:10267000F8028F5F0E947101882309F43DCF0E9408
:1026800092018091F7028F5F8093F70290E0880FAC
:10269000991F2091F3023091F402820F931F209131
:1026A000F802DC01ED91FC91B6E02B9FE00DF11DED
:1026B000112484E090E09383828388E090E057C007
:1026C0006091F80261508091F7020E9471018823A5
:1026D00009F412CF0E9492012091F8022150209318
:1026E000F8028091F70290E0880F991F4091F30261
:1026F0005091F402840F951FDC01ED91FC91B6E03E
:102700002B9FE00DF11D112484E090E093838283E0
:10271000F0920003E092FF0270CF6091F8026F5FC9
:102720008091F7020E947101882309F4E5CE0E948E
:1027300092012091F8022F5F2093F8028091F70216
:1027400090E0880F991F4091F3025091F402840F9A
:10275000951FDC01ED91FC91B6E02B9FE00DF11D82
:10276000112484E090E09383828382E090E0909350
:1027700000038093FF0241CF8091F7026091F8023D
:1027800081500E947101882309F4B6CE0E94920103
:102790008091F70281508093F70290E0880F991F93
:1027A0002091F3023091F402820F931F2091F802DE
:1027B000DC01ED91FC91B6E02B9FE00DF11D1124A1
:1027C00084E090E093838283D2CF80912A028111AA
:1027D00015C00E94CE05609322027093230280935D
:1027E0002402909325024092260250922702609282
:1027F00028027092290281E080932A0282E292E00C
:102800000E941E09882309F477CEF7CE80912A0210
:10281000811115C00E94CE0560932202709323029D
:102820008093240290932502409226025092270220
:10283000609228027092290281E080932A0282E24B
:1028400092E00E941E0981110E946C091092FA0206
:102850001092F9020BCEDB018F939F930E945D14BF
:10286000BF91AF91A29F800D911DA39F900DB29F2C
:10287000900D11240895A1E21A2EAA1BBB1BFD0185
:102880000DC0AA1FBB1FEE1FFF1FA217B307E4074F
:10289000F50720F0A21BB30BE40BF50B661F771FA7
:1028A000881F991F1A9469F7609570958095909587
:1028B0009B01AC01BD01CF0108950E946814A59F42
:1028C000900DB49F900DA49F800D911D112408952B
:1028D000A29FB001B39FC001A39F700D811D112461
:1028E000911DB29F700D811D1124911D089597FBBC
:1028F000072E16F4009407D077FD09D00E94981493
:1029000007FC05D03EF4909581959F4F08957095F2
:1029100061957F4F0895EE0FFF1F0590F491E02D14
:1029200009940E946814B7FF0895821B930B0895C1
:10293000AA1BBB1B51E107C0AA1FBB1FA617B707E5
:1029400010F0A61BB70B881F991F5A95A9F7809501
:102950009095BC01CD0108950F931F93CF93DF9302
:102960008230910510F482E090E0E091A603F091AE
:10297000A70330E020E0B0E0A0E0309799F4211503
:10298000310509F44AC0281B390B24303105D8F52C
:102990008A819B816115710589F1FB019383828393
:1029A000FE0111C0408151810281138148175907EE
:1029B000E0F04817590799F4109761F012960C93BC
:1029C000129713961C933296CF01DF91CF911F91EE
:1029D0000F9108950093A6031093A703F4CF211538
:1029E000310551F04217530738F0A901DB019A0174
:1029F000BD01DF01F801C1CFEF01F9CF9093A7032B
:102A00008093A603CDCFFE01E20FF31F8193919334
:102A10002250310939832883D7CF2091A4033091E4
:102A2000A503232B41F420913F01309140013093C5
:102A3000A5032093A40320913D0130913E0121156F
:102A4000310541F42DB73EB740914101509142010B
:102A5000241B350BE091A403F091A503E217F307C3
:102A6000A0F42E1B3F0B2817390778F0AC014E5FFE
:102A70005F4F2417350748F04E0F5F1F5093A50393
:102A80004093A403819391939FCFF0E0E0E09CCF2B
:102A9000CF93DF930097E9F0FC0132971382128203
:102AA000A091A603B091A703ED0130E020E01097BC
:102AB000A1F420813181820F931F2091A4033091D2
:102AC000A5032817390709F061C0F093A503E09327
:102AD000A403DF91CF910895EA01CE17DF07E8F54F
:102AE0004A815B819E0141155105B1F7E901FB83E4
:102AF000EA8349915991C40FD51FEC17FD0761F482
:102B0000808191810296840F951FE90199838883C2
:102B1000828193819B838A83F0E0E0E012968D911D
:102B20009C9113970097B9F52D913C911197CD0188
:102B30000296820F931F2091A4033091A5032817BA
:102B4000390739F6309751F51092A7031092A60372
:102B5000B093A503A093A403BCCFD383C2834081C9
:102B60005181840F951FC817D90761F44E5F5F4FDD
:102B700088819981480F591F518340838A819B81A5
:102B8000938382832115310509F0B0CFF093A70319
:102B9000E093A6039ECFFD01DC01C0CF1382128219
:102BA000D7CF81E090E0F8940C94D615F894FFCF3D
:102BB0000101000000000000000000000000000013
:102BC0000100000000000000010000000000010002
:102BD00000000000000000010000000000000000F4
:102BE00000FFFFFFFF00E10000000000000000A860
:102BF00003800000000000400B400B400BFA08F679
:102C000008F30800000000B0086C086A08FA08F62B
:102C100008CE031706000D0E1B1C292A010C0F1AE3
:102C20001D282B020B10191E272C030A11181F2612
:102C30002D0409121720252E0508131621242F060E
:102C400007141522233000C180810000000000001D
:102C500000D1034905F203E7033804F60314040D19
:102C60000A006D6F6F7665640067616D65206F7631
:102C70006572206F722077696E202100564D445096
:102C8000565F317C315F564D4450560A00564D44D4
:102C900050525F0053746172742067616D6521004A
:00000001FF
