:100000000C94D4000C94FC000C94FC000C94FC00A8
:100010000C94FC000C94FC000C94FC000C94FC0070
:100020000C94FC000C94FC000C94CB0B0C943A0C3C
:100030000C94FC000C94FC000C94FC000C94FC0050
:100040000C94FC000C94FC000C94FC000C94FC0040
:100050000C94FC000C94FC000C94FC000C946C0EB2
:100060000C94FC000C94FC000C94FC000C94FC0020
:100070000C94FC000C94FC000C94FC000C94FC0010
:100080000C94FC000C94FC000C94FC000C94FC0000
:100090000C94FC000C94FC000C94FC000C94FC00F0
:1000A0000C94FC000C94FC000C94FC00000000007C
:1000B000250028002B002E00310000000000240045
:1000C00027002A002D003000000000002300260039
:1000D00029002C002F000404040404030405020278
:1000E00002020403020202020606060606060404D1
:1000F0000202020404040802011040804010204063
:10010000804080080204018040201002011080100D
:10011000204040200000000200090F0000030401FD
:10012000000C0000000000000000000000000000C3
:10013000000000080B000202020000090400000198
:10014000020200000524001001052401010104241D
:10015000020605240600010705810310004009047A
:100160000100020A00000007050202400000070526
:1001700083024000000403090412010002EF02019F
:100180004041233780000101020301417264756917
:100190006E6F204C4C430041726475696E6F204D48
:1001A0006963726F0000B60E11241FBECFEFDAE054
:1001B000DEBFCDBF13E0A0E0B1E0E0E4FCE202C0AE
:1001C00005900D92A836B107D9F724E0A8E6B3E070
:1001D00001C01D92AF3DB207E1F710E0C4EDD0E0E1
:1001E00004C02197FE010E94B914C33DD107C9F78D
:1001F0000E94D90E0C941E160C94000090916D0470
:10020000891700F590916E046917E0F490E0880F6B
:10021000991F20916B0430916C04820F931F24E08E
:10022000629FB0011124FC0180819181680F791FC8
:10023000FB012081318181E02115310529F0233036
:10024000310511F080E00895089590916D048917AB
:10025000E8F490916E046917C8F490E0880F991F34
:1002600020916B0430916C04820F931F24E0629FF5
:10027000B0011124FC0180819181680F791F81E018
:10028000FB01208131812330310509F080E00895A0
:10029000FB01DC016C9112967C91862F880F880FF0
:1002A000880F35E5282F239F020E20E0211D112401
:1002B000922F562F5074462F407267FD2EC0511159
:1002C0000FC0822F80954423B9F09B5A30E08BEA0F
:1002D00026EE482F429F040E40E0411D842F18C097
:1002E000411113C0382F2AEA329F030E30E0311D2E
:1002F00011248BEA831B965530E08111E9CF30E061
:1003000091112EC040E0892F3CC080E0322F9095A3
:10031000911126C0482F80E02BC0511116C0411109
:100320000CC0382F2AEA329F030E30E0311D112411
:100330009BEA931B3B5A80E0EBCF322F3095822F04
:1003400040E08823A9F090E0C3CF411105C085E5C6
:10035000820F3BEA321BF4CF8AEA820F90E0FACF99
:10036000292F46EE249F020E20E0211D482F822FC8
:1003700090E0332331F026EE329F030E30E0311D42
:10038000932F112429E1229F020E20E0211D112428
:10039000322F340F820F920F7F3F09F420C020E0EC
:1003A000772321F0779F212D09F02F5F2223D9F0A9
:1003B000332321F0329F030E30E0311D882331F0CA
:1003C000482F429F040E40E0411D842F992331F0B5
:1003D000492F429F040E40E0411D942F1124308389
:1003E00081839283089590E080E030E0F8CFFC01B3
:1003F00080916A04882311F13FB7F89482E08093DA
:10040000E9002091F200822F90E01816190614F4EA
:1004100081E090E0882339F0289A44E6409369040B
:100420004091F1004083222339F02091F200211104
:1004300003C02BE62093E8003FBF08958FEF9FEFA6
:1004400008952FB7F89483E08093E9009091E80035
:10045000892F807295FF04C09091F20080E4891B7F
:100460002FBF08958091610481110DC082E08093B7
:100470005D0484E080935E041092600410925F0437
:1004800081E0809361048DE594E00895CF93DF933C
:100490001F92CDB7DEB76983DC01ED91FC9102803C
:1004A000F381E02D41E050E0BE016F5F7F4F099581
:1004B0000F90DF91CF91089583E08093E9008091C0
:1004C000F200882319F08AE38093E80008950E94DF
:1004D000210290E00895CF93DF931F92CDB7DEB74E
:1004E000FC018485958597FD08C02FEF3FEF358788
:1004F00024870F90DF91CF910895CE0101960E943D
:10050000F701019719F4898190E0F3CF8FEF9FEF06
:10051000F0CF0F931F93CF93DF931F92CDB7DEB72A
:100520008C01FC018485958597FF0BC0CE01019657
:100530000E94F701019771F4898190E0F801958795
:100540008487F801848595850F90DF91CF911F9165
:100550000F9108958FEF9FEFF1CFFC018485958572
:1005600097FD0BC09FB7F89482E08093E9008091DB
:10057000F2009FBF90E0019608959FB7F89482E043
:100580008093E9008091F2009FBF90E00895409130
:100590005704509158042091550430915604421745
:1005A0005307B4F49091E8009570E1F39091E8005E
:1005B00092FD19C08093F1008091570490915804E6
:1005C00001968F739927892B19F48EEF8093E80099
:1005D0008091570490915804019690935804809309
:1005E000570481E0089580E00895EF92FF920F9301
:1005F0001F93CF93DF93F82E192FE62E042F81E05F
:10060000860F880F0E94C70283E00E94C702CF2D89
:10061000D12FEC0EFD2EF11CCE15DF05B9F007FF32
:1006200013C0FE0184910E94C702182F80E00E942F
:10063000C702812321968111EFCFDF91CF911F91C6
:100640000F91FF90EF9008958881EDCF81E0F5CF75
:10065000DF92EF92FF920F931F93CF93DF93D82EE9
:100660008A01EB017B01E40EF51ECE15DF0559F082
:10067000D7FE12C0FE0184910E94C702219681110B
:10068000F4CF0FEF1FEFC801DF91CF911F910F91B2
:10069000FF90EF90DF9008958881EECF0F931F9326
:1006A000CF93DF931F92CDB7DEB782E0898342E418
:1006B00050E063E371E080E80E9428030E94320268
:1006C000DC0112960D911C910115110589F0D801DC
:1006D000ED91FC910280F381E02DBE016F5F7F4FB1
:1006E000C801099597FD04C0F80100851185ECCF7C
:1006F00089810F90DF91CF911F910F9108956150E3
:1007000030F02091F100FC0120830196F8CF289A67
:1007100084E680936904089580E991E00895282F84
:1007200030E0F901EC5EFE4F9491F901EB50FF4F80
:1007300084912A523F4FF9012491222309F45BC08E
:100740009923E9F091509F30D0F4E92FF0E0E5557E
:10075000FC4F0C94B914D603DA03BA03CE03D203C8
:10076000BF03BF03BF03DD03E303E703EB03F103B1
:10077000BF03F503909180009F7790938000E22F54
:10078000F0E0EE0FFF1FE853FF4FA591B491EC91FD
:10079000E82381E090E089F580E008959091800061
:1007A0009F7DEBCF90918000977FE7CF94B59F77A7
:1007B00094BDE5CF94B59F7DFBCF909190009F773E
:1007C00090939000DCCF909190009F7DF9CF909115
:1007D0009000977FF5CF9091C0009F779093C000D5
:1007E000CECF9091C0009F7DF9CF9091C200977FAE
:1007F0009093C200C4CF80E090E00895CF93DF9340
:1008000090E0FC01EB50FF4F24918A529F4FFC0176
:1008100084918823D1F090E0880F991FFC01E65461
:10082000FF4FA591B491FC01E455FF4FC591D491C0
:10083000623071F49FB7F8943C91822F80958323A6
:100840008C93E8812E2B28839FBFDF91CF91089551
:100850008FB7F894EC912E2B2C938FBFF6CF3FB728
:10086000F89480916F0390917003A0917103B091FF
:10087000720326B5A89B05C02F3F19F00196A11D54
:10088000B11D3FBFBA2FA92F982F8827BC01CD01DA
:10089000620F711D811D911D42E0660F771F881F39
:1008A000991F4A95D1F70895CF92DF92EF92FF9268
:1008B0000E942F046B017C010E942F046C197D099A
:1008C0008E099F09683E734081059105A8F3FF904A
:1008D000EF90DF90CF9008958F929F92AF92BF924A
:1008E000CF92DF92EF92FF920F931F93CF93DF93FC
:1008F0006C017B018A018091F502882309F458C0BC
:1009000080916A04882309F453C080915C0480FFBD
:1009100005C08091E00082608093E000E801B12C86
:100920008AEFA82E93E0892E2AE3922E209711F4C5
:10093000BB20B9F10E942102811106C0AA94AA200D
:10094000B9F10E945404F2CF8C171D0611F00CF07F
:100950008C2F9FB7F8948092E9002091E80025FD44
:1009600002C09FBFE3CF282F30E0C21BD30BF7019B
:10097000815020F041914093F100FACFE20EF31E36
:10098000BB2021F09092E800B12CEBCF8091E800E1
:1009900085FDE7CF9092E800BB24B394209709F33C
:1009A000F3CF5D9A84E680935B04101611063CF049
:1009B00081E090E0F6019383828310E000E0C801BB
:1009C000DF91CF911F910F91FF90EF90DF90CF902B
:1009D000BF90AF909F908F9008952FB7F89460913B
:1009E0006B0370916C0380916D0390916E032FBF28
:1009F0000895FC01808191818617970721F0138269
:100A00001282718360830895AF92BF92CF92DF927A
:100A1000EF92FF920F931F93CF93DF934091730454
:100A2000509174044130510581F020F0443051055B
:100A300008F46FC1DF91CF911F910F91FF90EF905C
:100A4000DF90CF90BF90AF900895D0917004C09187
:100A50006F0411E01C0F6D2F812F0E94FE00C82E25
:100A6000F82E0FEF0C0F6D2F802F0E94FE00B82E76
:100A7000882319F0FF24F394FC0CEE24E394ED0E8C
:100A80006E2D8C2F0E94FE00A82E8111F394DD2480
:100A9000DA94DD0E6D2D8C2F0E94FE00882309F460
:100AA000A5C0F39420917704309178042115310585
:100AB00009F0CAC081E0F81280E0809379046D2FBC
:100AC000812F0E94FE008823C9F02C2F30E02F5F79
:100AD0003F4F220F331F80916B0490916C04280FBD
:100AE000391F44E0D49FC0011124F90120813181D4
:100AF00063E070E0820F931F0E94F904D0917004AC
:100B0000C0916F046D2F8FEF8C0F0E94FE00882321
:100B1000C9F02C2F30E021503048220F331F809134
:100B20006B0490916C04280F391FF4E0DF9FC00123
:100B30001124F9012081318163E070E0820F931F5D
:100B40000E94F904C0917004D0916F0461E06C0FB1
:100B50008D2F0E94FE008823C9F08D2F90E0880F12
:100B6000991FE0916B04F0916C04E80FF91F8C2F32
:100B700090E00196880F991F880F991F208131817D
:100B800063E070E0820F931F0E94F904C09170042B
:100B9000D0916F046FEF6C0F8D2F0E94FE008823A1
:100BA00009F448CF8D2F90E0880F991FE0916B04D6
:100BB000F0916C04E80FF91F8C2F90E08150904C5D
:100BC000880F991F880F991F2081318163E070E0A1
:100BD000820F931FDF91CF911F910F91FF90EF90A4
:100BE000DF90CF90BF90AF900C94F904F1105ACFE2
:100BF00060916E0470916D04C0916B04D0916C048F
:100C000020E090E080E043E050E06217A1F0FE01B8
:100C100030E0731769F0A191B191A80FB91F0D9041
:100C2000BC91A02DAB2B11F442E050E03F5FF1CF1F
:100C30002F5F0496EACF509374044093730410928C
:100C40006F0410927004F6CE22303105E1F1E0F429
:100C50002130310509F0EECE882381F1D092700465
:100C60002C2F30E0220F331F80916B0490916C0485
:100C7000280F391FF4E0DF9EC0011124F901208103
:100C8000318164E070E0A4CF2430310579F128305F
:100C9000310509F0CFCECC2089F010936F04812F5D
:100CA00090E0880F991FE0916B04F0916C04E80FBD
:100CB000F91F44E0D49FC0011124E1CF10927804C1
:100CC00010927704B7CEAA20C9F3E09270042C2FBB
:100CD00030E0220F331F80916B0490916C04280F39
:100CE000391FF4E0EF9EC0011124C8CFBB2031F3BF
:100CF00000936F04802F90E0880F991FE0916B04A0
:100D0000F0916C04E80FF91F24E0D29FC001112478
:100D1000B6CF80916F0490E0880F991F20916B04EB
:100D200030916C04820F931F2091700464E0269F21
:100D300090011124FC0180819181820F931FFC019D
:100D400020813181215031094230510591F465E013
:100D500070E02230310590F480916F0420916D0491
:100D60002150330B8217130664F48F5F80936F0456
:100D700061CE2230310580F366E070E00E94F90414
:100D8000EBCF8091700420916E042150330B8217B9
:100D9000130634F410926F048F5F809370044ACE70
:100DA0008091730490917404039739F485E090E086
:100DB00090937404809373043DCE84E090E0F8CF68
:100DC000CF92DF92EF92FF920F931F93CF93DF9317
:100DD00010926F04109270041092740410927304B5
:100DE000C0E000E0D12CC12C10E080916E04C81747
:100DF000B8F544E0C49F70011124D0E0E0916B0489
:100E0000F0916C0480916D04D81740F58D2F90E01F
:100E1000880F991FE80FF91FA081B181AE0DBF1D8A
:100E20008D919C9181309105B9F0111107C0029705
:100E300029F4D0936F04C093700411E080819181F4
:100E400070E060E08E0D9F1D0E94F904C11004C087
:100E50000C2FDD2ECC24C394DF5FD0CFCF5FC5CF66
:100E6000111104C0D0926F040093700480916F043C
:100E700090E0880F991F20916B0430916C04820FD1
:100E8000931F20917004E4E02E9F90011124FC0137
:100E90008081918163E070E0820F931FDF91CF9199
:100EA0001F910F91FF90EF90DF90CF900C94F90479
:100EB000CF92DF92EF92FF920F931F93CF93DF9326
:100EC00080917C0490916E04899FC001112420912F
:100ED0006D04289F8001299F100D1124D0E0C0E0EF
:100EE00080916E048C171D06D9F1D0F17E01EE0CB5
:100EF000FF1CEE0CFF1CD12CC12C80916D0490E0E6
:100F0000C816D90658F5C89F9001C99F300DD89FC3
:100F1000300D1124E0917A04F0917B04E00FF11F71
:100F2000EC0DFD1DE20FF31F61E070E08081813068
:100F300011F070E060E0C601880F991FE0916B042A
:100F4000F0916C04E80FF91F808191818E0D9F1D37
:100F50000E94F9048FEFC81AD80ACFCF2196C0CFCC
:100F6000DF91CF911F910F91FF90EF90DF90CF9085
:100F70000C94E006CF93DF93D0917004C0916F047E
:100F80006D2F8FEF8C0F0E9425018823C9F02C2F25
:100F900030E021503048220F331F80916B04909134
:100FA0006C04280F391F44E0D49FC0011124F901BB
:100FB0002081318170E060E0820F931F0E94F9046C
:100FC000D0917004C0916F046D2F81E08C0F0E944E
:100FD00025018823C9F02C2F30E02F5F3F4F220FCF
:100FE000331F80916B0490916C04280F391FF4E03B
:100FF000DF9FC0011124F9012081318170E060E0A0
:10100000820F931F0E94F904C0917004D0916F0465
:101010006FEF6C0F8D2F0E9425018823D1F08D2F4B
:1010200090E0880F991FE0916B04F0916C04E80F39
:10103000F91F8C2F90E08150904C880F991F880FDA
:10104000991F2081318170E060E0820F931F0E9420
:10105000F904C0917004D0916F0461E06C0F8D2F82
:101060000E9425018823D9F08D2F90E0880F991FC9
:10107000E0916B04F0916C04E80FF91F8C2F90E065
:101080000196880F991F880F991F2081318170E088
:1010900060E0820F931FDF91CF910C94F904DF91F0
:1010A000CF9108950F931F93CF93DF9320916903FE
:1010B0002F5F322F37703093690320FF2BC020E859
:1010C00031FD2064347009F02062205FFC01EC01E6
:1010D000239600E011E06485662329F070E0C801E2
:1010E0000E9483146F5F6187322F369F030E30E0BA
:1010F000311D1124311110C01682662311F0615088
:1011000061873196EC17FD0731F7DF91CF911F9181
:101110000F91089520E0D4CF31503683EECF4F9217
:101120005F926F927F928F92AF92BF92CF92DF9237
:10113000EF920F931F93CF93DF933C01EB010E943B
:101140002F04F30127853089621B730B6A30710508
:10115000B0F3F894E881F9817BB172606BB16D7F77
:101160006BB9CA848F812C2D281B822F2F83BF84BB
:101170004A805B801D850C85DE841F5F0F5FD394E2
:101180009E813885A984EB844181D20120E0C32F60
:10119000522F322F3181442788943111380F08F4AF
:1011A0003FEF8195889410FD430F4795889411FD7A
:1011B000430F4795889412FD430F4795889413FD7C
:1011C000430F4795889414FD430F4795889415FD68
:1011D000430F4795889416FD430F4795889417FD54
:1011E000430F47958894232F1111242F8C0D422FE4
:1011F000002C7BB900C000C047FF6BB930812227AB
:10120000889400C0002C6BB93111390F00C0002C3C
:101210007BB900C000C046FF6BB908F43FEF919561
:10122000889400C0002C6BB900FD230F00C0002C77
:101230007BB900C000C045FF6BB92795889401FDBC
:10124000230F00C0002C6BB92795889400C0002C98
:101250007BB900C000C044FF6BB902FD230F279586
:10126000889400C0002C6BB903FD230F00C0002C34
:101270007BB900C000C043FF6BB92795889404FD7B
:10128000230F00C0002C6BB92795889400C0002C58
:101290007BB900C000C042FF6BB905FD230F279545
:1012A000889400C0002C6BB906FD230F00C0002CF1
:1012B0007BB900C000C041FF6BB92795889407FD3A
:1012C000230F00C0002C6BB92795889400C0002C18
:1012D0007BB900C000C040FF6BB9432F0111422F02
:1012E0009A0D00C0002C6BB900C000C0002C7BB967
:1012F00000C000C047FF6BB932812227889400C02C
:10130000002C6BB931113C0F00C0002C7BB900C020
:1013100000C046FF6BB908F43FEFEB0DF11D00C0B4
:10132000002C6BB9D0FC230F00C0002C7BB900C08F
:1013300000C045FF6BB927958894D1FC230F00C0EE
:10134000002C6BB92795889400C0002C7BB900C095
:1013500000C044FF6BB9D2FC230F2795889400C0CE
:10136000002C6BB9D3FC230F00C0002C7BB900C04C
:1013700000C043FF6BB927958894D4FC230F00C0AD
:10138000002C6BB92795889400C0002C7BB900C055
:1013900000C042FF6BB9D5FC230F2795889400C08D
:1013A000002C6BB9D6FC230F00C0002C7BB900C009
:1013B00000C041FF6BB927958894D7FC230F00C06C
:1013C000002C6BB92795889400C0002C7BB900C015
:1013D00000C040FF6BB9432FD110422FC19500C010
:1013E000002C6BB9CE0D00C000C07BB900C000C09E
:1013F00047FF6BB931812227889400C0002C6BB95C
:101400003111380F00C0002C7BB900C000C046FF6E
:101410006BB908F43FEF8195889400C0002C6BB93C
:1014200010FD230F00C0002C7BB900C000C045FF99
:101430006BB92795889411FD230F00C0002C6BB960
:101440002795889400C0002C7BB900C000C044FFE1
:101450006BB912FD230F2795889400C0002C6BB93F
:1014600013FD230F00C0002C7BB900C000C043FF58
:101470006BB92795889414FD230F00C0002C6BB91D
:101480002795889400C0002C7BB900C000C042FFA3
:101490006BB915FD230F2795889400C0002C6BB9FC
:1014A00016FD230F00C0002C7BB900C000C041FF17
:1014B0006BB92795889417FD230F00C0002C6BB9DA
:1014C0002795889400C0002C7BB900C000C040FF65
:1014D0006BB9432F1111422F8C0D00C0002C6BB93A
:1014E000119709F086CE20EE31E0D2010E94CE1491
:1014F000DC01CB01F4E0B695A79597958795FA9511
:10150000D1F730E020E0B901EAE94E9E040C611DFC
:101510005E9E600D711D1124650D711D860F971F54
:10152000A11DB11D893E43E09407A105B10508F452
:1015300034C0885E9340A109B10942E0B695A795F1
:10154000979587954A95D1F747E0849F080E211D0E
:10155000949F200D311D1124290F311D60916803C6
:1015600070E0860F971F820F931F40916B0350917D
:101570006C0360916D0370916E03292F3327420F26
:10158000531F611D711D40936B0350936C03609357
:101590006D0370936E038093680378940E942F0408
:1015A000F301708B6787DF91CF911F910F91EF90BF
:1015B000DF90CF90BF90AF908F907F906F905F90B3
:1015C0004F900895519A08950F931F93CF93DF93EF
:1015D000CDB7DEB762970FB6F894DEBF0FBECDBFB2
:1015E0008C01F901DC011C968C917A8369835C8300
:1015F0004B835E834D8390819D8791819E879281ED
:101600009F878130F1F4CE0101960E94520883E059
:10161000888B1A8A198AD801ED91FC910484F5858A
:10162000E02DBE016F5F7F4FC801099562960FB62E
:10163000F894DEBF0FBECDBFDF91CF911F910F9108
:1016400008951C861B861A86198618861F82DFCF8E
:101650000F931F93CF93DF93CDB7DEB762970FB68B
:10166000F894DEBF0FBECDBF8C01F901DC011C96E2
:101670008C917A8369835C834B835E834D839081F5
:101680009D8791819E8792819F878130E9F4CE0169
:1016900001960E945208188A1A8A198AD801ED9177
:1016A000FC910484F585E02DBE016F5F7F4FC8017A
:1016B000099562960FB6F894DEBF0FBECDBFDF91DD
:1016C000CF911F910F9108951C861B861A8619864B
:1016D00018861F82E0CF90E080E00895FC018585A8
:1016E00096850895CF93DF9300D000D000D0CDB77A
:1016F000DEB7AB011C821D821E82DC01ED91FC91E4
:101700000190F081E02D19821A821B829E012F5FC9
:101710003F4FBE016C5F7F4F099526960FB6F89438
:10172000DEBF0FBECDBFDF91CF910895CF92DF9284
:10173000EF92FF921F93CF93DF93EC010E94ED0491
:10174000C880D980EA80FB80DC01CB018C199D091F
:10175000AE09BF09CC80DD80EE80FF8011E08C15E2
:101760009D05AE05BF0508F410E08C159D05AE057E
:10177000BF0530F00E94ED04688379838A839B83E0
:10178000812FDF91CF911F91FF90EF90DF90CF904D
:1017900008950E9419161F920F920FB60F921124EE
:1017A0008F939F938091E1009091E100937F9093BC
:1017B000E10083FF0FC01092E90091E09093EB00ED
:1017C0001092EC0092E39093ED0010926A0498E07E
:1017D0009093F00082FF22C093E09093E9009091F3
:1017E000F200992319F09AE39093E80090915B043A
:1017F000992341F090915B04915090935B04911177
:1018000001C05D9890916904992341F09091690419
:10181000915090936904911101C0289884FF18C0D9
:101820008091E2008E7E81608093E2008091E100F1
:101830008F7E8093E10080915C048E7E8061809336
:101840005C049F918F910F900FBE0F901F90189581
:1018500080FFF7CF8091E2008E7E80618093E2006E
:101860008091E1008E7E8093E10080915C048E7E09
:101870008160E5CF1F920F920FB60F921124CF9285
:10188000DF92EF92FF920F931F932F933F934F930B
:101890005F936F937F938F939F93AF93BF93EF93D8
:1018A000FF93CF93DF93CDB7DEB76C97DEBFCDBF8D
:1018B0001092E9008091E80083FF25C068E0CE0126
:1018C00045960E947F0382EF8093E8008D8987FF11
:1018D00039C09091E80090FFFCCF982F907609F0E6
:1018E00034C19E894F89588D2F89F88C911131C050
:1018F000803861F580915A048093F1001092F100D4
:101900008EEF8093E8006C960FB6F894DEBF0FBEA2
:10191000CDBFDF91CF91FF91EF91BF91AF919F919B
:101920008F917F916F915F914F913F912F911F9177
:101930000F91FF90EF90DF90CF900F900FBE0F9020
:101940001F9018959EEF9093E800C7CF1092F1007A
:10195000D5CF913059F48111D3CF4130510581F663
:1019600080915A048D7F80935A04CACF933049F4F2
:101970008111C6CF4130510519F680915A04826019
:10198000F2CF953041F48091E80080FFFCCF2068D1
:101990002093E300B5CF963009F0A9C00B8D1C8DC4
:1019A00022E01092E9001092580410925704F212AB
:1019B0002EC010925604109255040E944E031F82AE
:1019C00099E09983FA8291E09E8390EA98879AEF52
:1019D00099872091570430915804275F3F4F3C83EB
:1019E0002B838D831092E9001092580410925704B3
:1019F000109356040093550449E050E0BE016F5F18
:101A00007F4F80E00E9428030E944E0379CF1093FD
:101A10005604009355040E943202DC0112960D9187
:101A20001C910115110509F451C1D801ED91FC91EA
:101A30000480F581E02DBE016B5E7F4FC8010995E2
:101A4000009709F03EC1F80100851185EACFF3E067
:101A5000FF120EC08F89882309F440C0823061F4E0
:101A600040E86DE087E991E00E94F502811148CFDE
:101A700081E28093EB0047CF813029F440E86BE0AE
:101A80008BE891E0F1CF833099F70E943202DC01BC
:101A90001296ED90FC908E010F5F1F4F6801E114CC
:101AA000F10479F0D701ED91FC910680F781E02DEA
:101AB000B801C7010995080F111DF701E084F184F1
:101AC000EECFD8011C92F60101900020E9F7319782
:101AD000BF016C197D0940E0C601C6CF65E771E022
:101AE000FB01449150E080E80E94280309CF973021
:101AF00009F4BECF983021F481E08093F10000CF4B
:101B0000993009F0FDCE837009F0B2CFE0E5F3E043
:101B100081E031E096E32191222371F08093E90086
:101B20003093EB00DF0111972C912093EC00909300
:101B3000ED008F5F873079F78EE78093EA0010928F
:101B4000EA008F8980936A04DBCE8B8D9C8D109286
:101B5000E900109258041092570490935604809311
:101B60005504898D811192C08E899D89913A49F4DD
:101B7000813209F07DCF47E050E06EEE72E080E008
:101B8000B3CF913209F074CF833269F48F89988D85
:101B9000B0E0A0E08093EA029093EB02A093EC0205
:101BA000B093ED02ADCE803269F48091E80082FFFF
:101BB000FCCF67E08EEE92E00E947F038BEF809374
:101BC000E8009ECE823209F09BCE8F898093F50289
:101BD000EEEFFFE7859194918B3F9C4D51F1E0E052
:101BE000F8E08091EE029091EF02A091F002B091A6
:101BF000F102803B9440A105B105F1F48091F5021A
:101C000080FD1AC0EE3F8AE0F80789F587E797E77D
:101C100091838083809160008093590488E19BE0E8
:101C20000FB6F894A895809360000FBE9093600063
:101C300067CEEEEFFAE0D5CF808191818737974765
:101C400009F05ECEA8958091600088618093600065
:101C50008091590480936000EE3F2AE0F20789F0FA
:101C60008091FE0A9091FF0A9183808349CE808102
:101C700091818737980751F29093FF0A8093FE0A6B
:101C8000C5CF1092FF0A1092FE0A3ACE0E9432028D
:101C9000DC0112960D911C910115110509F4E8CE95
:101CA000D801ED91FC910190F081E02DBE016B5EB9
:101CB0007F4FC8010995811123CEF8010085118558
:101CC000EBCF181619060CF41BCED2CEF1E0FF12A2
:101CD000BECE69E771E004CF1F920F920FB60F924C
:101CE00011242F933F938F939F93AF93BF93809132
:101CF0006B0390916C03A0916D03B0916E033091D2
:101D00006A0323E0230F2D3758F50196A11DB11D5D
:101D100020936A0380936B0390936C03A0936D03ED
:101D2000B0936E0380916F0390917003A091710343
:101D3000B09172030196A11DB11D80936F03909322
:101D40007003A0937103B0937203BF91AF919F9101
:101D50008F913F912F910F900FBE0F901F9018956C
:101D600026E8230F0296A11DB11DD2CFEEE7F4E0C5
:101D70001382128288EE93E0A0E0B0E08483958322
:101D8000A683B7838AE593E0918380838FEF9FEFEB
:101D900095878487EEECF4E08083128211821486AA
:101DA00013868FEF9FEFDC0187839087A187B2872F
:101DB0000895CF93DF9300D000D000D0CDB7DEB729
:101DC000789484B5826084BD84B5816084BD85B516
:101DD000826085BD85B5816085BD80916E00816022
:101DE00080936E00109281008091810082608093C8
:101DF00081008091810081608093810080918000CA
:101E00008160809380008091910082608093910036
:101E10008091910081608093910080919000816019
:101E2000809390008091C10084608093C100809174
:101E3000C10082608093C1008091C1008160809365
:101E4000C1008091C30081608093C3008091C00075
:101E500082608093C0008091C20081608093C20044
:101E600080917A00846080937A0080917A00826009
:101E700080937A0080917A00816080937A008091CB
:101E80007A00806880937A0010926A0410925A0453
:101E900010925C048091D70081608093D70080EA23
:101EA0008093D80089B5806189BD89B5826089BD7C
:101EB00009B400FEFDCF0E9454048091D8008F7CAD
:101EC00080618093D8008091E000807F8093E00063
:101ED0008091E1008E7E8093E1008DE08093E200AE
:101EE000559A209A5D98289861E00E94FE0362E06E
:101EF00087E00E94FE0362E085E00E94FE0362E04C
:101F000086E00E94FE0362E088E00E94FE0362E039
:101F100089E00E94FE0362E08AE00E94FE03809155
:101F20008603811145C010927803109277038FEFDA
:101F300080937B0380937C0380937D0380937E0357
:101F400080937F038093800381E0809381031092CC
:101F500083031092820310927A0310927903809186
:101F6000940390919503892B31F485E793E0909346
:101F7000950380939403E0917303F0917403309779
:101F800021F085E793E09583848385E793E0909340
:101F9000740380937303109285031092840380E18D
:101FA00093E0909376038093750381E0809386039A
:101FB000519A80EB93E0909378038093770381E3C9
:101FC00090E090938303809382038091D104909159
:101FD000D204A091D304B091D404843C29E09207A8
:101FE000A105B10520F484EC99E0A0E0B0E0809375
:101FF000D1049093D204A093D304B093D4048EE080
:1020000090E00E94F4148C01909344048093430464
:102010007C016C014EE0C40ED11C8CE190E00E946A
:10202000F414FC019C01245E3F4F11821082138244
:10203000128234962E173F07C1F7D7018D939D93D7
:102040007D01CA16DB0649F710936C0400936B04FC
:1020500087E080936D0480936E048AE080937D0412
:1020600080E091E090937B0480937A0410927C044A
:102070000E94580770EAB72E80914D04811119C053
:102080000E94ED04609345047093460480934704D6
:102090009093480485E090E0A0E0B0E0809349048C
:1020A00090934A04A0934B04B0934C0481E0809336
:1020B0004D0485E494E00E94960B882309F498C1AE
:1020C0002EE1822E23E0922E10E000E03EEB432E24
:1020D00040E6542E56EED52E6EEB662E1401F12CF2
:1020E000E12CB8ECCB2E80EC782E90E4A92EE09178
:1020F0004304F0914404E00FF11F0190F081E02DC2
:10210000EE0DFF1D228133812B5F3F4F33832283EE
:102110008081918183309105A9F050F4813091053F
:1021200009F41BC1029761F01C821D821E8225C02A
:102130008530910509F417C108F413C10697A1F77A
:1021400059820CC1283E93E0390708F0E9C0B982F2
:10215000DA82A4EBB0E00E94BF1428EE33E040E046
:1021600050E00E949714842D821B8B83BE016C5F0C
:102170007F4FCE0101960E944801D101EC918E2F34
:1021800090E0FC01EE0FFF1FE80FF91FE055FC4F38
:102190008C8180838D8181838E818283B4E0EB0E7C
:1021A000F11CE7E02E0E311CFCE1EF16F10409F002
:1021B0009ECF2FEF821A920A0E5F1F4F0E3011052D
:1021C00009F08CCFF090CE048091D1049091D2048C
:1021D000A091D304B091D404892B8A2B8B2BD9F0F6
:1021E0000E942F0400919603109197032091980369
:1021F00030919903601B710B820B930B0091D104FA
:102200001091D2042091D3043091D4046017710747
:1022100082079307C8F20E942F046093960370937D
:1022200097038093980390939903E091D904F091D8
:10223000DA04309759F04091D5045091D60460915A
:10224000D7047091D8048F2D0995F82E009194032E
:10225000109195034F2C512C712C612C01151105F7
:1022600009F483C0D8011C96EC901C978091CF0490
:102270009091D0048436910510F41C961C92D801DC
:10228000ED91FC918280938019821A821B82FF203B
:1022900089F1F8013696D12CC12C2191222319F114
:1022A000A280AA2001F130E050E040E02F5F3F4FD4
:1022B0004F4F5F4FC301B2010E9473149B01AC01E9
:1022C0008A2D90E0B0E0A0E0BC01CD016F5F7F4FB0
:1022D0008F4F9F4F0E947314A1E0B0E0AC0FBD1F61
:1022E000AC0DBD1D8C93BFEFCB1ADB0A23E0C216E9
:1022F000D10499F6D8011D964D915C911E971296C6
:102300006D917C919E012F5F3F4FC801F4010995AB
:10231000D8011C96EC921C9714960D911C919ECF9F
:10232000203DA7E03A0798F4B982DA82A4EBB0E046
:102330000E94BF1460527F4B8240910928EE33E027
:1023400040E050E00E949714265F2B830FCF13824A
:102350001282B982DA826B8209CF1982DA82CB8249
:1023600005CFA982FBCF7982F9CF8091920390911A
:1023700093038C010F5F1F4F1093930300939203FD
:102380004997B4F10E94ED04C0908E03D0908F0362
:10239000E0909003F09091039B01AC012C193D0952
:1023A0004E095F0921F421E030E040E050E088EE82
:1023B00093E0089FB001099F700D189F700D1124C4
:1023C000072E000C880B990B0E9497143093D004B1
:1023D0002093CF0410929303109292030E94ED0475
:1023E00060938E0370938F03809390039093910377
:1023F00087E00E948F0302E0892B09F000E085E06E
:102400000E948F0311E0892B09F010E0102B86E069
:102410000E948F03892BB9F584E0182B88E00E9475
:102420008F03892B91F588E0182B89E00E948F0398
:10243000892B69F580E1182B8AE00E948F03892B94
:1024400041F580E2182B1093AF038091AE0318176B
:1024500011F1112301F10E94ED046E5C7F4F8F4F4B
:102460009F4F6093AA037093AB038093AC03909348
:10247000AD031093AE0380E090E0892B09F4FCCD0E
:102480000E940000F7CD80E0C8CF80E0CDCF80E093
:10249000D2CF80E0D7CF0E94ED04C090AA03D090A5
:1024A000AB03E090AC03F090AD03C616D706E80688
:1024B000F90608F0EFC1112309F4ECC1E12EF12C6B
:1024C0008091710490917204E816F90609F4BDC177
:1024D00080917304909174048130910509F4B7C020
:1024E00060F08430910509F496C1059709F49BC109
:1024F000F0927204E0927104BCCF143031F00CF011
:102500004DC08FEF810F823098F780916F0490E07B
:10251000880F991F20916B0430916C04820F931FD8
:1025200020917004B4E02B9F90011124FC01808164
:10253000918170E060E0820F931F0E94F904C090C7
:102540006D04D12C20916E0430E080906B0490904B
:102550006C049091700480916F04123009F441C0B2
:1025600034F5113091F1E0916F04F0E0EE0FFF1FB0
:10257000E80DF91D8091700494E0899FA001112459
:1025800080819181840F951FDC014D915C91452BD9
:1025900001F763E070E00E94F904AACF103141F125
:1025A000103209F445C1183009F0A2CFAECF143073
:1025B000E1F090E001961830B1F68C0D9D1DB6014A
:1025C0000E94831480936F04CECF492F4150550B46
:1025D000CA01820F931FB9010E9483148093700473
:1025E000C2CF892F90E00196F4CF8150990BE5CFAF
:1025F00080916F0490E0880F991F20916B043091B7
:102600006C04820F931F20917004B4E02B9F900103
:102610001124FC018081918162E070E0820F931FA0
:102620000E94F90481E090E0909374048093730415
:1026300010927804109277040E94040559CF80E02C
:10264000891710F480937C040E94580751CF1430EE
:1026500039F00CF05AC08FEF810F823008F048CF6C
:10266000D090700400916F046FEF6D0D802F0E9469
:102670002501882349F051E0E516F10409F44FC023
:102680008091790481114BC061E06D0D802F0E9413
:10269000250181116AC06D2D8FEF800F0E942501E9
:1026A00081118EC06D2D81E0800F0E94250188234D
:1026B00009F41ECFB8E0EB16F10429F080917904FB
:1026C000882309F415CF0E94BA0780916F048F5FA9
:1026D00080936F0490E0880F991F20916B043091D4
:1026E0006C04820F931F20917004E4E02E9F9001F0
:1026F0001124DC018D919C9164E070E0820F931FA6
:102700000E94F90488E090E02BC0103109F488C0E1
:10271000103209F485C0183009F0EACEA1CF0E942A
:10272000BA078091700481508093700420916F04E7
:1027300030E0220F331F40916B0450916C04240F42
:10274000351FA4E08A9FC0011124F9012081318145
:1027500064E070E0820F931F0E94F90481E090E032
:10276000909378048093770467CFF2E0EF16F1043A
:1027700029F080917904882309F48DCF0E94BA074B
:10278000809170048F5F8093700420916F0430E01B
:10279000220F331F40916B0450916C04240F351F9E
:1027A00044E0849FC0011124D9012D913C9164E043
:1027B00070E0820F931F0E94F90482E090E0D0CF76
:1027C000B4E0EB16F10429F080917904882309F430
:1027D00069CF0E94BA0780916F04815080936F0483
:1027E00090E0880F991F20916B0430916C04820F48
:1027F000931F20917004E4E02E9F90011124DC01CE
:102800008D919C9164E070E0820F931F0E94F90407
:1028100084E090E0A5CFB0E1EB16F10409F068CEBA
:102820000E94E00665CEE0E1EE16F10409F060CE0C
:1028300080917C0490917D04492F4150550B841761
:1028400015060CF0FCCE8F5FFBCE8091A2038111A8
:1028500019C00E94ED0460939A0370939B038093C8
:102860009C0390939D0384E190E0A0E0B0E080930E
:102870009E0390939F03A093A003B093A10381E0D4
:102880008093A2038AE993E00E94960B882309F4BF
:102890002FCED2CE8091A203811119C00E94ED04E7
:1028A00060939A0370939B0380939C0390939D0382
:1028B00084E190E0A0E0B0E080939E0390939F03BA
:1028C000A093A003B093A10381E08093A2038AE9BF
:1028D00093E00E94960B81110E94040510927204ED
:1028E00010927104C6CDDB018F939F930E94D51483
:1028F000BF91AF91A29F800D911DA39F900DB29F9C
:10290000900D1124089597FB072E16F4009407D01C
:1029100077FD09D00E94E01407FC05D03EF49095A5
:1029200081959F4F0895709561957F4F0895A1E21D
:102930001A2EAA1BBB1BFD010DC0AA1FBB1FEE1F39
:10294000FF1FA217B307E407F50720F0A21BB30B84
:10295000E40BF50B661F771F881F991F1A9469F700
:1029600060957095809590959B01AC01BD01CF015C
:102970000895EE0FFF1F0590F491E02D0994A29F9A
:10298000B001B39FC001A39F700D811D1124911D43
:10299000B29F700D811D1124911D08950E94BF14D6
:1029A000B7FF0895821B930B08950E94BF14A59F43
:1029B000900DB49F900DA49F800D911D112408953A
:1029C000AA1BBB1B51E107C0AA1FBB1FA617B70755
:1029D00010F0A61BB70B881F991F5A95A9F7809571
:1029E0009095BC01CD0108950F931F93CF93DF9372
:1029F0008230910510F482E090E0E091DD04F091E6
:102A0000DE0430E020E0B0E0A0E0309799F421153A
:102A1000310509F44AC0281B390B24303105D8F59B
:102A20008A819B816115710589F1FB019383828302
:102A3000FE0111C04081518102811381481759075D
:102A4000E0F04817590799F4109761F012960C932B
:102A5000129713961C933296CF01DF91CF911F915D
:102A60000F9108950093DD041093DE04F4CF211537
:102A7000310551F04217530738F0A901DB019A01E3
:102A8000BD01DF01F801C1CFEF01F9CF9093DE0462
:102A90008093DD04CDCFFE01E20FF31F819391936C
:102AA0002250310939832883D7CF2091DB0430911C
:102AB000DC04232B41F42091F8023091F902309389
:102AC000DC042093DB042091F6023091F7022115FB
:102AD000310541F42DB73EB74091FA025091FB0207
:102AE000241B350BE091DB04F091DC04E217F307C3
:102AF000A0F42E1B3F0B2817390778F0AC014E5F6E
:102B00005F4F2417350748F04E0F5F1F5093DC04CA
:102B10004093DB04819391939FCFF0E0E0E09CCF62
:102B2000CF93DF930097E9F0FC0132971382128272
:102B3000A091DD04B091DE04ED0130E020E01097BB
:102B4000A1F420813181820F931F2091DB04309109
:102B5000DC042817390709F061C0F093DC04E09326
:102B6000DB04DF91CF910895EA01CE17DF07E8F586
:102B70004A815B819E0141155105B1F7E901FB8353
:102B8000EA8349915991C40FD51FEC17FD0761F4F1
:102B9000808191810296840F951FE9019983888332
:102BA000828193819B838A83F0E0E0E012968D918D
:102BB0009C9113970097B9F52D913C911197CD01F8
:102BC0000296820F931F2091DB043091DC042817BA
:102BD000390739F6309751F51092DE041092DD0472
:102BE000B093DC04A093DB04BCCFD383C2834081C9
:102BF0005181840F951FC817D90761F44E5F5F4F4D
:102C000088819981480F591F518340838A819B8114
:102C1000938382832115310509F0B0CFF093DE0450
:102C2000E093DD049ECFFD01DC01C0CF1382128250
:102C3000D7CF81E090E0F8940C941E16F894FFCF63
:102C40000000000000000000000000000000000084
:102C50000000000000000000000000000000000074
:102C60000000000000000000000000000000000064
:102C70000000000000000000000000000000000054
:102C80000000000000000000000000000000000044
:102C90000000000000000000000000000000000133
:102CA0000101010101010101010100000000000119
:102CB000010000000100010100000000000101000E
:102CC00000000000010100000000010101010101FC
:102CD00001010101010101010101010000000000E9
:102CE00001010000000000010100000100010101DC
:102CF00000000000000101000000000001010101CE
:102D000001010101010101010101010100000000B7
:102D100000010100010001000101000000000001AC
:102D20000100010100010101000000000101010199
:102D30000101010101010101010101010100000185
:102D4000010101010000000000010100000000007D
:102D5000010100000000000101010100000001016B
:102D6000010101010101000000000000000001015B
:102D70000101010000000000000000000000000050
:102D8000000000000000000000000101010101003E
:102D90000000000000000000000000000000000033
:102DA000000000000000000001010100000000011F
:102DB0000000000000000000000000000000000013
:102DC0000000000000000000000000000000000003
:102DD00000000000000000000000000000000000F3
:102DE00001000100000000000000000000000000E1
:102DF00000000000000000000001010101000000CF
:102E000000000000000000000000000000000000C2
:102E100000000000000000000000000000000000B2
:102E200000000000000000000101FFFFFFFF00E1C3
:102E30000000000000000000DF048000000000002F
:102E4000C90BC90BC90B720B6E0B6B0B000000009A
:102E5000280BE40AE20A720B6E0B8C038F08000D3C
:102E60000E1B1C292A010C0F1A1D282B020B1019EE
:102E70001E272C030A11181F262D040912172025BE
:102E80002E0508131621242F0607141522233000BF
:102E9000C180810000000000000046026C0467024F
:082EA0005C02AD026B02890225
:00000001FF
