:100000000C94D4000C94FC000C94FC000C94FC00A8
:100010000C94FC000C94FC000C94FC000C94FC0070
:100020000C94FC000C94FC000C94840B0C94F30BCB
:100030000C94FC000C94FC000C94FC000C94FC0050
:100040000C94FC000C94FC000C94FC000C94FC0040
:100050000C94FC000C94FC000C94FC000C94250EF9
:100060000C94FC000C94FC000C94FC000C94FC0020
:100070000C94FC000C94FC000C94FC000C94FC0010
:100080000C94FC000C94FC000C94FC000C94FC0000
:100090000C94FC000C94FC000C94FC000C94FC00F0
:1000A0000C94FC000C94FC000C94FC00000000007C
:1000B000250028002B002E00310000000000240045
:1000C00027002A002D003000000000002300260039
:1000D00029002C002F000404040404030405020278
:1000E00002020403020202020606060606060404D1
:1000F0000202020404040802011040804010204063
:10010000804080080204018040201002011080100D
:10011000204040200000000200090F0000030401FD
:10012000000C0000000000000000000000000000C3
:10013000000000080B000202020000090400000198
:10014000020200000524001001052401010104241D
:10015000020605240600010705810310004009047A
:100160000100020A00000007050202400000070526
:1001700083024000000403090412010002EF02019F
:100180004041233780000101020301417264756917
:100190006E6F204C4C430041726475696E6F204D48
:1001A0006963726F00006F0E11241FBECFEFDAE09B
:1001B000DEBFCDBF12E0A0E0B1E0EEECFBE202C09A
:1001C00005900D92A43AB107D9F724E0A4EAB2E071
:1001D00001C01D92AB31B207E1F710E0C4EDD0E0F1
:1001E00004C02197FE010E949414C33DD107C9F7B2
:1001F0000E94920E0C94E5150C9400009091A903B6
:100200008917F0F49091AA036917D0F490E0880F51
:10021000991F2091A7033091A803820F931FDC013F
:10022000ED91FC91B6E06B9FE00DF11D1124228150
:10023000338181E02115310529F02330310511F09A
:1002400080E008950895AF92BF92CF92DF92EF922F
:10025000FF920F931F93CF93DF932091AF033091C1
:10026000B0032130310581F020F02430310508F44D
:1002700063C1DF91CF911F910F91FF90EF90DF90BD
:10028000CF90BF90AF900895D091AC03C091AB03D5
:1002900011E01C0F6D2F812F0E94FE00C82EF82E3A
:1002A0000FEF0C0F6D2F802F0E94FE00B82E8823B9
:1002B00019F0FF24F394FC0CEE24E394ED0E6E2D64
:1002C0008C2F0E94FE00A82E8111F394DD24DA9475
:1002D000DD0E6D2D8C2F0E94FE00882309F489C04D
:1002E000F3942091B3033091B4032115310509F043
:1002F000AFC081E0F81280E08093B5036D2F812FAD
:100300000E94FE008823B9F08C2F90E00196880FA0
:10031000991F2091A7033091A803820F931FDC013E
:10032000ED91FC91B6E0DB9FE00DF11D112483E01F
:1003300090E0938382836D2F802F0E94FE0088239C
:10034000C1F08C2F90E081509048880F991F209128
:10035000A7033091A803820F931FDC01ED91FC915C
:10036000B6E0DB9FE00DF11D112483E090E0938364
:1003700082836E2D8C2F0E94FE008823D9F08C2F53
:1003800090E0880F991FA091A703B091A803A80F30
:10039000B91F8D2F90E0019646E0489F9001499F3C
:1003A000300D1124ED91FC91E20FF31F83E090E0FA
:1003B000938382836D2D8C2F0E94FE00882309F485
:1003C00058CF8C2F90E0880F991FE091A703F091F0
:1003D000A803E80FF91F0190F081E02D66E0D69F99
:1003E000E00DF11D1124369783E090E09383828322
:1003F00040CFF11076CF6091AA037091A903C0910C
:10040000A703D091A80320E090E080E043E050E013
:100410006217A9F0FE0130E0731771F0A191B1915C
:10042000A80FB91F12960D90BC91A02DAB2B11F403
:1004300042E050E03F5FF0CF2F5F0696E9CF509348
:10044000B0034093AF031092AB031092AC0311CFF3
:100450002230310509F440C0E0F42130310509F0C3
:1004600008CF8823A1F1D092AC038C2F90E0880FA5
:10047000991FC091A703D091A803C80FD91FE88185
:10048000F98186E0D89EE00DF11D112484E090E012
:10049000ADCF24303105B9F12830310509F0E9CE6E
:1004A000CC20A9F01093AB03812F90E0880F991F07
:1004B0002091A7033091A803820F931FDC01ED91D7
:1004C000FC91B6E0DB9FE00DF11D1124DFCF10920F
:1004D000B4031092B303CDCEAA20C9F3E092AC03CB
:1004E0008C2F90E0880F991F2091A7033091A803CB
:1004F000820F931FDC01ED91FC91B6E0EB9EE00DC5
:10050000F11D1124C3CFBB2011F30093AB03802F47
:1005100090E0880F991F4091A7035091A803840F82
:10052000951FDC01ED91FC91B6E0DB9FE00DF11D24
:100530001124338322839DCE9091AB038091AC0331
:10054000492F50E0BA01660F771FE091A703F091A1
:10055000A803E60FF71F0190F081E02D66E0869F6B
:10056000E00DF11D1124628173812230310581F487
:1005700025E030E06130710581F42091A90321501C
:10058000330B4217530764F49F5F9093AB0371CE14
:100590006130710591F322E030E033832283EDCFA7
:1005A0002091AA032150330B8217130634F41092C2
:1005B000AB038F5F8093AC035CCE84E090E09093BC
:1005C000B0038093AF0355CE0F931F93CF93109238
:1005D000AB031092AC031092B0031092AF03709172
:1005E000AA03C091A9032091A7033091A80350E06A
:1005F00040E080E060E07817E1F0D90190E0C917B1
:10060000A1F0ED91FD91E40FF51F028113810130FE
:10061000110549F013821282611105C09093AB035A
:100620008093AC0361E09F5FEACF8F5F4A5F5F4FCB
:10063000E2CF8091AB0390E0880F991F820F931F48
:100640002091AC03DC01ED91FC91B6E02B9FE00D15
:10065000F11D112483E090E093838283CF911F9159
:100660000F9108959091A9038917D8F49091AA0346
:100670006917B8F490E0880F991F2091A703309173
:10068000A803820F931FDC01ED91FC91B6E06B9FF4
:10069000E00DF11D112481E02281338123303105E9
:1006A00009F080E00895CF93DF93C091AC03D0911F
:1006B000AB036C2F8FEF8D0F0E9432038823B1F0B4
:1006C0008D2F90E081509048880F991F2091A703AB
:1006D0003091A803820F931FDC01ED91FC91B6E0ED
:1006E000CB9FE00DF11D1124138212826C2F81E04B
:1006F0008D0F0E9432038823A9F08D2F90E0019680
:10070000880F991F2091A7033091A803820F931F90
:10071000DC01ED91FC91B6E0CB9FE00DF11D1124C1
:10072000138212826FEF6C0F8D2F0E943203882389
:10073000A9F08D2F90E0880F991FE091A703F09109
:10074000A803E80FF91F0190F081E02D86E0C89F13
:10075000E00DF11D112436971382128261E06C0FB7
:100760008D2F0E9432038823D9F08D2F90E0880FBF
:10077000991F2091A7033091A803820F931F6C2F1C
:1007800070E06F5F7F4F46E0469F9001479F300DBE
:100790001124DC01ED91FC91E20FF31F1382128210
:1007A000DF91CF9108956F927F929F92AF92BF9207
:1007B000CF92DF92EF92FF920F931F93CF93DF932D
:1007C0004091AA038091A9036091B803469FB001AC
:1007D000112490E0689F9001699F300D789F300D43
:1007E0001124B090A703A090A8036091B603709164
:1007F000B703260F371FAA27BB27A21BB30B70E036
:1008000060E0D0E0C0E050E0C417D50730F56B2CB5
:100810007A2C790187010A0F1B1F08171907A8F402
:10082000F301019111913F01F70191907F01060FB2
:10083000171FCC24C394D12CF1E09F1611F0D12CBA
:10084000C12CF801D382C282E5CF2196280F391F2F
:10085000A81BB90B6A5F7F4FD7CFDF91CF911F9154
:100860000F91FF90EF90DF90CF90BF90AF909F904F
:100870007F906F900C94E402FB01DC016C91129666
:100880007C91862F880F880F880F35E5282F239FAE
:10089000020E20E0211D1124922F562F5074462F56
:1008A000407267FD2EC051110FC0822F80954423E6
:1008B000B9F09B5A30E08BEA26EE482F429F040E97
:1008C00040E0411D842F18C0411113C0382F2AEA7F
:1008D000329F030E30E0311D11248BEA831B9655A5
:1008E00030E08111E9CF30E091112EC040E0892F36
:1008F0003CC080E0322F9095911126C0482F80E0B7
:100900002BC0511116C041110CC0382F2AEA329F5A
:10091000030E30E0311D11249BEA931B3B5A80E00B
:10092000EBCF322F3095822F40E08823A9F090E062
:10093000C3CF411105C085E5820F3BEA321BF4CFDE
:100940008AEA820F90E0FACF292F46EE249F020E0A
:1009500020E0211D482F822F90E0332331F026EE36
:10096000329F030E30E0311D932F112429E1229F85
:10097000020E20E0211D1124322F340F820F920F1E
:100980007F3F09F420C020E0772321F0779F212DBD
:1009900009F02F5F2223D9F0332321F0329F030E79
:1009A00030E0311D882331F0482F429F040E40E093
:1009B000411D842F992331F0492F429F040E40E0BE
:1009C000411D942F1124308381839283089590E0F8
:1009D00080E030E0F8CFFC018091A603882311F17C
:1009E0003FB7F89482E08093E9002091F200822FD3
:1009F00090E01816190614F481E090E0882339F08D
:100A0000289A44E64093A5034091F10040832223B5
:100A100039F02091F200211103C02BE62093E80069
:100A20003FBF08958FEF9FEF08952FB7F89483E0AD
:100A30008093E9009091E800892F807295FF04C0AF
:100A40009091F20080E4891B2FBF089580919D034F
:100A500081110DC082E08093990384E080939A0312
:100A600010929C0310929B0381E080939D0389E97F
:100A700093E00895CF93DF931F92CDB7DEB76983DC
:100A8000DC01ED91FC910280F381E02D41E050E02A
:100A9000BE016F5F7F4F09950F90DF91CF91089551
:100AA00083E08093E9008091F200882319F08AE3C3
:100AB0008093E80008950E94150590E00895CF9373
:100AC000DF931F92CDB7DEB7FC018485958597FD36
:100AD00008C02FEF3FEF358724870F90DF91CF912C
:100AE0000895CE0101960E94EB04019719F48981C3
:100AF00090E0F3CF8FEF9FEFF0CF0F931F93CF9343
:100B0000DF931F92CDB7DEB78C01FC0184859585FC
:100B100097FF0BC0CE0101960E94EB04019771F480
:100B2000898190E0F80195878487F801848595850F
:100B30000F90DF91CF911F910F9108958FEF9FEF4D
:100B4000F1CFFC018485958597FD0BC09FB7F89484
:100B500082E08093E9008091F2009FBF90E00196CF
:100B600008959FB7F89482E08093E9008091F200A5
:100B70009FBF90E00895409193035091940320917A
:100B800091033091920342175307B4F49091E80017
:100B90009570E1F39091E80092FD19C08093F10007
:100BA000809193039091940301968F739927892BD9
:100BB00019F48EEF8093E800809193039091940351
:100BC0000196909394038093930381E0089580E0CD
:100BD0000895EF92FF920F931F93CF93DF93F82E18
:100BE000192FE62E042F81E0860F880F0E94BB0587
:100BF00083E00E94BB05CF2DD12FEC0EFD2EF11C02
:100C0000CE15DF05B9F007FF13C0FE0184910E94E5
:100C1000BB05182F80E00E94BB058123219681111E
:100C2000EFCFDF91CF911F910F91FF90EF9008953B
:100C30008881EDCF81E0F5CFDF92EF92FF920F93A5
:100C40001F93CF93DF93D82E8A01EB017B01E40E33
:100C5000F51ECE15DF0559F0D7FE12C0FE018491B6
:100C60000E94BB0521968111F4CF0FEF1FEFC80141
:100C7000DF91CF911F910F91FF90EF90DF9008953A
:100C80008881EECF0F931F93CF93DF931F92CDB741
:100C9000DEB782E0898342E450E063E371E080E8FC
:100CA0000E941C060E942605DC0112960D911C91E3
:100CB0000115110589F0D801ED91FC910280F381B5
:100CC000E02DBE016F5F7F4FC801099597FD04C0FD
:100CD000F80100851185ECCF89810F90DF91CF91CC
:100CE0001F910F910895615030F02091F100FC01A7
:100CF00020830196F8CF289A84E68093A50308956F
:100D000080E991E00895282F30E0F901EC5EFE4F74
:100D10009491F901EB50FF4F84912A523F4FF90112
:100D20002491222309F45BC09923E9F091509F306C
:100D3000D0F4E92FF0E0E156F94F0C949414CA0670
:100D4000CE06AE06C206C606B306B306B306D10685
:100D5000D706DB06DF06E506B306E90690918000BC
:100D60009F7790938000E22FF0E0EE0FFF1FE85393
:100D7000FF4FA591B491EC91E82381E090E089F5D3
:100D800080E00895909180009F7DEBCF909180004E
:100D9000977FE7CF94B59F7794BDE5CF94B59F7DBE
:100DA000FBCF909190009F7790939000DCCF909133
:100DB00090009F7DF9CF90919000977FF5CF909113
:100DC000C0009F779093C000CECF9091C0009F7DD0
:100DD000F9CF9091C200977F9093C200C4CF80E07A
:100DE00090E00895CF93DF9390E0FC01EB50FF4F2C
:100DF00024918A529F4FFC0184918823D1F090E086
:100E0000880F991FFC01E654FF4FA591B491FC0196
:100E1000E455FF4FC591D491623071F49FB7F894B7
:100E20003C91822F809583238C93E8812E2B2883FD
:100E30009FBFDF91CF9108958FB7F894EC912E2B3F
:100E40002C938FBFF6CF3FB7F8948091AB0290916F
:100E5000AC02A091AD02B091AE0226B5A89B05C030
:100E60002F3F19F00196A11DB11D3FBFBA2FA92F29
:100E7000982F8827BC01CD01620F711D811D911D26
:100E800042E0660F771F881F991F4A95D1F7089592
:100E90008F929F92AF92BF92CF92DF92EF92FF928A
:100EA0004B015C010E9423076B017C010E94230718
:100EB0006C197D098E099F09683E73408105910573
:100EC000A8F321E0821A9108A108B10888EEC80EA3
:100ED00083E0D81EE11CF11C81149104A104B1042B
:100EE00029F7FF90EF90DF90CF90BF90AF909F9049
:100EF0008F9008958F929F92AF92BF92CF92DF9280
:100F0000EF92FF920F931F93CF93DF936C017B01BE
:100F10008A0180913102882309F45CC08091A60384
:100F2000882309F457C08091980380FF05C0809101
:100F3000E00082608093E000E801B12C8AEFA82EE7
:100F400093E0892E2AE3922E209711F4BB20D9F149
:100F50000E94150581110AC0AA94AA20D9F161E066
:100F600070E080E090E00E944807EECF8C171D06ED
:100F700011F00CF08C2F9FB7F8948092E90020912B
:100F8000E80025FD02C09FBFDFCF282F30E0C21B45
:100F9000D30BF701815020F041914093F100FACF3B
:100FA000E20EF31EBB2021F09092E800B12CEBCFB3
:100FB0008091E80085FDE7CF9092E800BB24B394D0
:100FC000209709F3F3CF5D9A84E680939703101678
:100FD00011063CF081E090E0F6019383828310E0FB
:100FE00000E0C801DF91CF911F910F91FF90EF902A
:100FF000DF90CF90BF90AF909F908F9008952FB7C4
:10100000F8946091A7027091A8028091A902909132
:10101000AA022FBF08950F931F93CF93DF932091C0
:10102000A5022F5F322F37703093A50220FF2BC00F
:1010300020E831FD2064347009F02062205FFC015B
:10104000EC01239600E011E06485662329F070E04E
:10105000C8010E945E146F5F6187322F369F030EB6
:1010600030E0311D1124311110C01682662311F0B9
:10107000615061873196EC17FD0731F7DF91CF9111
:101080001F910F91089520E0D4CF31503683EECFD9
:101090004F925F926F927F928F92AF92BF92CF9258
:1010A000DF92EF920F931F93CF93DF933C01EB01FD
:1010B0000E942307F30127853089621B730B6A3076
:1010C0007105B0F3F894E881F9817BB172606BB17E
:1010D0006D7F6BB9CA848F812C2D281B822F2F83A3
:1010E000BF844A805B801D850C85DE841F5F0F5F97
:1010F000D3949E813885A984EB844181D20120E07C
:10110000C32F522F322F3181442788943111380F49
:1011100008F43FEF8195889410FD430F479588941C
:1011200011FD430F4795889412FD430F479588940E
:1011300013FD430F4795889414FD430F47958894FA
:1011400015FD430F4795889416FD430F47958894E6
:1011500017FD430F47958894232F1111242F8C0DD1
:10116000422F002C7BB900C000C047FF6BB9308113
:101170002227889400C0002C6BB93111390F00C0B0
:10118000002C7BB900C000C046FF6BB908F43FEFEC
:101190009195889400C0002C6BB900FD230F00C00E
:1011A000002C7BB900C000C045FF6BB9279588941F
:1011B00001FD230F00C0002C6BB92795889400C057
:1011C000002C7BB900C000C044FF6BB902FD230FA7
:1011D0002795889400C0002C6BB903FD230F00C035
:1011E000002C7BB900C000C043FF6BB927958894E1
:1011F00004FD230F00C0002C6BB92795889400C014
:10120000002C7BB900C000C042FF6BB905FD230F65
:101210002795889400C0002C6BB906FD230F00C0F1
:10122000002C7BB900C000C041FF6BB927958894A2
:1012300007FD230F00C0002C6BB92795889400C0D0
:10124000002C7BB900C000C040FF6BB9432F0111D7
:10125000422F9A0D00C0002C6BB900C000C0002CBA
:101260007BB900C000C047FF6BB932812227889448
:1012700000C0002C6BB931113C0F00C0002C7BB9B1
:1012800000C000C046FF6BB908F43FEFEB0DF11D45
:1012900000C0002C6BB9D0FC230F00C0002C7BB920
:1012A00000C000C045FF6BB927958894D1FC230F7F
:1012B00000C0002C6BB92795889400C0002C7BB926
:1012C00000C000C044FF6BB9D2FC230F279588945F
:1012D00000C0002C6BB9D3FC230F00C0002C7BB9DD
:1012E00000C000C043FF6BB927958894D4FC230F3E
:1012F00000C0002C6BB92795889400C0002C7BB9E6
:1013000000C000C042FF6BB9D5FC230F279588941D
:1013100000C0002C6BB9D6FC230F00C0002C7BB999
:1013200000C000C041FF6BB927958894D7FC230FFC
:1013300000C0002C6BB92795889400C0002C7BB9A5
:1013400000C000C040FF6BB9432FD110422FC195A0
:1013500000C0002C6BB9CE0D00C000C07BB900C02E
:1013600000C047FF6BB931812227889400C0002C50
:101370006BB93111380F00C0002C7BB900C000C020
:1013800046FF6BB908F43FEF8195889400C0002CAC
:101390006BB910FD230F00C0002C7BB900C000C04A
:1013A00045FF6BB92795889411FD230F00C0002CD1
:1013B0006BB92795889400C0002C7BB900C000C091
:1013C00044FF6BB912FD230F2795889400C0002CB1
:1013D0006BB913FD230F00C0002C7BB900C000C007
:1013E00043FF6BB92795889414FD230F00C0002C90
:1013F0006BB92795889400C0002C7BB900C000C051
:1014000042FF6BB915FD230F2795889400C0002C6F
:101410006BB916FD230F00C0002C7BB900C000C0C3
:1014200041FF6BB92795889417FD230F00C0002C4E
:101430006BB92795889400C0002C7BB900C000C010
:1014400040FF6BB9432F1111422F8C0D00C0002CAF
:101450006BB9119709F086CE20EE31E0D2010E94DF
:101460009A14DC01CB01F4E0B695A7959795879582
:10147000FA95D1F730E020E0B901EAE94E9E040C7C
:10148000611D5E9E600D711D1124650D711D860F1D
:10149000971FA11DB11D893E43E09407A105B10529
:1014A00008F434C0885E9340A109B10942E0B695C2
:1014B000A795979587954A95D1F747E0849F080EA1
:1014C000211D949F200D311D1124290F311D609184
:1014D000A40270E0860F971F820F931F4091A7020E
:1014E0005091A8026091A9027091AA02292F332776
:1014F000420F531F611D711D4093A7025093A80214
:101500006093A9027093AA028093A40278940E9427
:101510002307F301708B6787DF91CF911F910F91A4
:10152000EF90DF90CF90BF90AF908F907F906F90B3
:101530005F904F900895519A08950F931F93CF9302
:10154000DF93CDB7DEB762970FB6F894DEBF0FBE5C
:10155000CDBF8C01F901DC011C968C917A836983E3
:101560005C834B835E834D8390819D8791819E87B1
:1015700092819F878130F1F4CE0101960E940B0881
:1015800083E0888B1A8A198AD801ED91FC91048432
:10159000F585E02DBE016F5F7F4FC801099562960A
:1015A0000FB6F894DEBF0FBECDBFDF91CF911F9174
:1015B0000F9108951C861B861A86198618861F822D
:1015C000DFCF0F931F93CF93DF93CDB7DEB7629733
:1015D0000FB6F894DEBF0FBECDBF8C01F901DC0160
:1015E0001C968C917A8369835C834B835E834D83E5
:1015F00090819D8791819E8792819F878130E9F4B8
:10160000CE0101960E940B08188A1A8A198AD801FD
:10161000ED91FC910484F585E02DBE016F5F7F4F55
:10162000C801099562960FB6F894DEBF0FBECDBF14
:10163000DF91CF911F910F9108951C861B861A860A
:10164000198618861F82E0CF90E080E00895FC01A3
:10165000858596850895CF93DF9300D000D000D084
:10166000CDB7DEB7AB011C821D821E82DC01ED917D
:10167000FC910190F081E02D19821A821B829E015B
:101680002F5F3F4FBE016C5F7F4F099526960FB6C7
:10169000F894DEBF0FBECDBFDF91CF910895CF92FA
:1016A000DF92EF92FF921F93CF93DF93EC010E94A2
:1016B000FF07C880D980EA80FB80DC01CB018C1950
:1016C0009D09AE09BF09CC80DD80EE80FF8011E06E
:1016D0008C159D05AE05BF0508F410E08C159D0521
:1016E000AE05BF0530F00E94FF07688379838A83C7
:1016F0009B83812FDF91CF911F91FF90EF90DF901F
:10170000CF9008950E94E0151F920F920FB60F928E
:1017100011248F939F938091E1009091E100937F3A
:101720009093E10083FF0FC01092E90091E0909345
:10173000EB001092EC0092E39093ED001092A60360
:1017400098E09093F00082FF22C093E09093E9002C
:101750009091F200992319F09AE39093E800909108
:101760009703992341F09091970391509093970399
:10177000911101C05D989091A503992341F090913A
:10178000A50391509093A503911101C0289884FF5F
:1017900018C08091E2008E7E81608093E20080918B
:1017A000E1008F7E8093E100809198038E7E8061BE
:1017B000809398039F918F910F900FBE0F901F9071
:1017C000189580FFF7CF8091E2008E7E8061809334
:1017D000E2008091E1008E7E8093E1008091980389
:1017E0008E7E8160E5CF1F920F920FB60F9211246B
:1017F000CF92DF92EF92FF920F931F932F933F931D
:101800004F935F936F937F938F939F93AF93BF9308
:10181000EF93FF93CF93DF93CDB7DEB76C97DEBF27
:10182000CDBF1092E9008091E80083FF25C068E0F9
:10183000CE0145960E94730682EF8093E8008D8961
:1018400087FF39C09091E80090FFFCCF982F9076E9
:1018500009F034C19E894F89588D2F89F88C9111D8
:1018600031C0803861F5809196038093F100109229
:10187000F1008EEF8093E8006C960FB6F894DEBF0F
:101880000FBECDBFDF91CF91FF91EF91BF91AF918F
:101890009F918F917F916F915F914F913F912F9188
:1018A0001F910F91FF90EF90DF90CF900F900FBEA0
:1018B0000F901F9018959EEF9093E800C7CF10925D
:1018C000F100D5CF913059F48111D3CF413051057A
:1018D00081F6809196038D7F80939603CACF9330D3
:1018E00049F48111C6CF4130510519F68091960314
:1018F0008260F2CF953041F48091E80080FFFCCF08
:1019000020682093E300B5CF963009F0A9C00B8D75
:101910001C8D22E01092E900109294031092930320
:10192000F2122EC010929203109291030E9442066E
:101930001F8299E09983FA8291E09E8390EA9887CA
:101940009AEF99872091930330919403275F3F4F3B
:101950003C832B838D831092E900109294031092A4
:101960009303109392030093910349E050E0BE016A
:101970006F5F7F4F80E00E941C060E94420679CF75
:1019800010939203009391030E942605DC011296A6
:101990000D911C910115110509F451C1D801ED916A
:1019A000FC910480F581E02DBE016B5E7F4FC80184
:1019B0000995009709F03EC1F80100851185EACF2D
:1019C000F3E0FF120EC08F89882309F440C08230F3
:1019D00061F440E86DE087E991E00E94E90581113A
:1019E00048CF81E28093EB0047CF813029F440E873
:1019F0006BE08BE891E0F1CF833099F70E942605E8
:101A0000DC011296ED90FC908E010F5F1F4F680174
:101A1000E114F10479F0D701ED91FC910680F78192
:101A2000E02DB801C7010995080F111DF701E084E9
:101A3000F184EECFD8011C92F60101900020E9F765
:101A40003197BF016C197D0940E0C601C6CF65E73B
:101A500071E0FB01449150E080E80E941C0609CF30
:101A6000973009F4BECF983021F481E08093F100E3
:101A700000CF993009F0FDCE837009F0B2CFECE8C9
:101A8000F2E081E031E096E32191222371F080932E
:101A9000E9003093EB00DF0111972C912093EC00CB
:101AA0009093ED008F5F873079F78EE78093EA009F
:101AB0001092EA008F898093A603DBCE8B8D9C8DDC
:101AC0001092E90010929403109293039093920362
:101AD00080939103898D811192C08E899D89913A5D
:101AE00049F4813209F07DCF47E050E06AE272E0CC
:101AF00080E0B3CF913209F074CF833269F48F89DB
:101B0000988DB0E0A0E08093260290932702A093E6
:101B10002802B0932902ADCE803269F48091E800AA
:101B200082FFFCCF67E08AE292E00E9473068BEFAF
:101B30008093E8009ECE823209F09BCE8F898093FD
:101B40003102EEEFFFE7859194918B3F9C4D51F16F
:101B5000E0E0F8E080912A0290912B02A0912C0203
:101B6000B0912D02803B9440A105B105F1F4809124
:101B7000310280FD1AC0EE3F8AE0F80789F587E759
:101B800097E791838083809160008093950388E13B
:101B90009BE00FB6F894A895809360000FBE9093D9
:101BA000600067CEEEEFFAE0D5CF80819181873774
:101BB000974709F05ECEA895809160008861809378
:101BC00060008091950380936000EE3F2AE0F20769
:101BD00089F08091FE0A9091FF0A9183808349CE1B
:101BE000808191818737980751F29093FF0A809303
:101BF000FE0AC5CF1092FF0A1092FE0A3ACE0E944A
:101C00002605DC0112960D911C910115110509F4B0
:101C1000E8CED801ED91FC910190F081E02DBE015C
:101C20006B5E7F4FC8010995811123CEF8010085B5
:101C30001185EBCF181619060CF41BCED2CEF1E0AD
:101C4000FF12BECE69E771E004CF1F920F920FB66C
:101C50000F9211242F933F938F939F93AF93BF9332
:101C60008091A7029091A802A091A902B091AA0226
:101C70003091A60223E0230F2D3758F50196A11DC0
:101C8000B11D2093A6028093A7029093A802A0936F
:101C9000A902B093AA028091AB029091AC02A091EC
:101CA000AD02B091AE020196A11DB11D8093AB02B1
:101CB0009093AC02A093AD02B093AE02BF91AF91EE
:101CC0009F918F913F912F910F900FBE0F901F907A
:101CD000189526E8230F0296A11DB11DD2CFEAEB7D
:101CE000F3E01382128288EE93E0A0E0B0E08483F8
:101CF0009583A683B78386E992E0918380838FEFF3
:101D00009FEF95878487EAE0F4E080831282118256
:101D1000148613868FEF9FEFDC0187839087A1875E
:101D2000B2870895CF93DF9300D000D000D0CDB715
:101D3000DEB7789484B5826084BD84B5816084BD4B
:101D400085B5826085BD85B5816085BD80916E0059
:101D5000816080936E00109281008091810082608A
:101D600080938100809181008160809381008091C7
:101D700080008160809380008091910082608093D8
:101D800091008091910081608093910080919000FA
:101D90008160809390008091C10084608093C10035
:101DA0008091C10082608093C1008091C1008160F8
:101DB0008093C1008091C30081608093C3008091B3
:101DC000C00082608093C0008091C20081608093D7
:101DD000C20080917A00846080937A0080917A00BA
:101DE000826080937A0080917A00816080937A008B
:101DF00080917A00806880937A001092A6031092F6
:101E00009603109298038091D70081608093D70049
:101E100080EA8093D80089B5806189BD89B58260E8
:101E200089BD09B400FEFDCF61E070E080E090E084
:101E30000E9448078091D8008F7C80618093D800F1
:101E40008091E000807F8093E0008091E1008E7EB1
:101E50008093E1008DE08093E200559A209A5D988E
:101E6000289861E00E94F20662E087E00E94F20694
:101E700062E085E00E94F20662E086E00E94F206DF
:101E800062E088E00E94F20662E089E00E94F206C9
:101E900062E08AE00E94F2068EE090E00E94BB14AD
:101EA0008C019093800380937F036C012EE0C20E1F
:101EB000D11C7C018AE290E00E94BB14FC019C01D1
:101EC000265D3F4F10821182138212821582148286
:101ED00036962E173F07B1F7D7018D939D937D015D
:101EE000CA16DB0639F790E080E030E0D80120E048
:101EF000ED91FD91E80FF91F208331831382128247
:101F0000158214822F5F273099F73F5F06968A3239
:101F1000910561F78091C202811145C01092B4020F
:101F20001092B3028FEF8093B7028093B802809330
:101F3000B9028093BA028093BB028093BC0281E015
:101F40008093BD021092BF021092BE021092B602A0
:101F50001092B5028091D0029091D102892B31F478
:101F600081EB92E09093D1028093D002E091AF0296
:101F7000F091B002309721F081EB92E09583848359
:101F800081EB92E09093B0028093AF021092C10275
:101F90001092C0028CE492E09093B2028093B1025E
:101FA00081E08093C202519A8CEE92E09093B40249
:101FB0008093B30281E390E09093BF028093BE02CE
:101FC00080910D0490910E04A0910F04B091100423
:101FD000843CE9E09E07A105B10520F484EC99E07A
:101FE000A0E0B0E080930D0490930E04A0930F0442
:101FF000B093100480917F03909180039093A80385
:102000008093A70387E08093A9038093AA0386E0C7
:102010008093B90380E091E09093B7038093B60377
:102020001092B8030E94D3037CE2272E332433940A
:1020300060EAB62E80918903811119C00E94FF07C2
:10204000609381037093820380938303909384034E
:1020500045E050E060E070E04093850350938603D4
:10206000609387037093880381E08093890381E8FC
:1020700093E00E944F0B882309F490C13AE5C32EE8
:1020800032E0D32E10E000E044EB842E56EEA52E75
:102090003601F12CE12C8EEB482E90E4592E28ECE1
:1020A000922EE0917F03F0918003E00FF11F0190E9
:1020B000F081E02DEE0DFF1D248135812B5F3F4F18
:1020C000358324838281938183309105A9F058F46C
:1020D0008130910509F416C1029709F417C11C82D9
:1020E0001D821E8221C08430910509F412C105971A
:1020F000B1F790EC998307C12C3251E0350708F015
:10210000E6C0B982AA82829EC001839E900D1124EE
:10211000B1010E944A14665F6B83BE016C5F7F4F02
:10212000CE0101960E943C04D301EC918E2F90E0E9
:10213000FC01EE0FFF1FE80FF91FE451FD4F8C81EA
:1021400080838D8181838E818283B6E0EB0EF11CCA
:10215000E7E06E0E711CFAE2EF16F10409F0A1CF70
:102160002FEFC21AD20A0E5F1F4F0E30110509F071
:102170008FCFF0900A0480910D0490910E04A091ED
:102180000F04B0911004892B8A2B8B2BD9F00E945D
:1021900023070091D2021091D3022091D4023091F2
:1021A000D502601B710B820B930B00910D041091F3
:1021B0000E0420910F0430911004601771078207FC
:1021C0009307C8F20E9423076093D2027093D30250
:1021D0008093D4029093D502E0911504F0911604F7
:1021E000309759F0409111045091120460911304FA
:1021F000709114048F2D0995F82E0091D002109142
:10220000D1024F2C512C712C612C0115110509F4B0
:1022100082C0D8011C96EC901C9780910B04909181
:102220000C048436910510F41C961C92D801ED9193
:10223000FC918280938019821A821B82FF2089F18F
:10224000F8013696D12CC12C2191222319F1A280BC
:10225000AA2001F130E050E040E02F5F3F4F4F4FA8
:102260005F4FC301B2010E943A149B01AC018A2D59
:1022700090E0B0E0A0E0BC01CD016F5F7F4F8F4FD9
:102280009F4F0E943A14A1E0B0E0AC0FBD1FAC0D0F
:10229000BD1D8C93BFEFCB1ADB0A23E0C216D1041D
:1022A00099F6D8011D964D915C911E9712966D91ED
:1022B0007C919E012F5F3F4FC801F4010995D80121
:1022C0001C96EC921C9714960D911C919ECF28356C
:1022D00062E0360780F4B982AA82829EC001839EA2
:1022E000900D1124805F924DB1010E944A14842DFB
:1022F000861B8B8312CF15821482B982AA827AE060
:102300007B830BCF1982AA829B8207CF80E68983C9
:10231000FACF5982F8CF8091CE029091CF028C01F2
:102320000F5F1F4F1093CF020093CE024997B4F175
:102330000E94FF07C090CA02D090CB02E090CC026E
:10234000F090CD029B01AC012C193D094E095F09AB
:1023500021F421E030E040E050E088EE93E0089F77
:10236000B001099F700D189F700D1124072E000CED
:10237000880B990B0E94721430930C0420930B0469
:102380001092CF021092CE020E94FF076093CA0201
:102390007093CB028093CC029093CD0287E00E9491
:1023A000830602E0892B09F000E085E00E948306A5
:1023B00011E0892B09F010E0102B86E00E948306C3
:1023C000892BE9F584E0182B88E00E948306892B8D
:1023D000C1F588E0182B89E00E948306892B99F5C6
:1023E00080E1182B8AE00E948306892B71F580E238
:1023F000182B1093EB028091EA02181741F1112378
:1024000031F10E94FF076E5C7F4F8F4F9F4F6093AB
:10241000E6027093E7028093E8029093E90210933A
:10242000EA026AE070E080E090E00E94480780E005
:1024300090E0892B09F4FECD0E940000F9CD80E0E8
:10244000C2CF80E0C7CF80E0CCCF80E0D1CF0E9468
:10245000FF07C090E602D090E702E090E802F0901B
:10246000E902C616D706E806F90608F0DAC1112314
:1024700009F4D7C1E12EF12C8091AD039091AE0308
:10248000E816F90609F4A8C18091AF039091B00352
:102490008130910509F4BAC040F0049709F494C161
:1024A000F092AE03E092AD03BACF143031F00CF0ED
:1024B00049C08FEF810F823098F7C090A703D0906A
:1024C000A803E091AB03F0E0EE0FFF1FEC0DFD1D44
:1024D0008091AC030190F081E02DB6E08B9FE00D80
:1024E000F11D112413821282E091A903F0E02091E2
:1024F000AA0330E046E09091AC038091AB03123028
:1025000009F443C044F51130A1F1A091AB03B0E050
:10251000AA0FBB1FAC0DBD1D8091AC030D90BC91EB
:10252000A02D849FA00DB11D112412968D919C9118
:102530001397892B01F783E090E013969C938E9379
:102540001297AECF103141F1103209F44BC0183060
:1025500009F0A6CFB2CF1430E1F090E00196183028
:10256000A1F68E0F9F1FBF010E945E148093AB03E4
:10257000CCCF692F6150770BCB01820F931FB9012C
:102580000E945E148093AC03C0CF892F90E0019627
:10259000F4CF8150990BE5CF8091AB0390E0880F89
:1025A000991F2091A7033091A803820F931F2091B8
:1025B000AC03DC01ED91FC91B6E02B9FE00DF11D29
:1025C000112482E090E09383828381E090E09093F5
:1025D000B0038093AF031092B4031092B3030E9430
:1025E00023015ECF8091B8039091B903E92FE150A8
:1025F000FF0B8E171F0644F48F5F891710F480932A
:10260000B8030E94D3034CCF80E0F7CF143039F0E9
:102610000CF059C08FEF810F823008F041CFD0907D
:10262000AC030091AB036FEF6D0D802F0E9432035E
:10263000882349F0F1E0EF16F10409F44EC08091CF
:10264000B50381114AC061E06D0D802F0E943203F5
:10265000811168C06D2D8FEF800F0E9432038111B0
:102660008BC06D2D81E0800F0E943203882309F416
:1026700017CFE8E0EE16F10429F08091B503882326
:1026800009F40ECF0E9453038091AB038F5F8093B8
:10269000AB0390E0880F991F2091A7033091A80306
:1026A000820F931F2091AC03DC01ED91FC91B6E009
:1026B0002B9FE00DF11D112484E090E09383828331
:1026C00088E090E02AC0103109F483C0103209F488
:1026D00080C0183009F0E4CEA2CF0E9453032091AD
:1026E000AC0321502093AC038091AB0390E0880FA2
:1026F000991F4091A7035091A803840F951FDC01F7
:10270000ED91FC91B6E02B9FE00DF11D112484E0CA
:1027100090E09383828381E090E09093B403809370
:10272000B3035DCFE2E0EE16F10429F08091B5032A
:10273000882309F48FCF0E9453032091AC032F5FAD
:102740002093AC038091AB0390E0880F991F4091D8
:10275000A7035091A803840F951FDC01ED91FC9114
:10276000B6E02B9FE00DF11D112484E090E09383EF
:10277000828382E090E0D1CFE4E0EE16F10429F00C
:102780008091B503882309F46CCF0E945303809194
:10279000AB0381508093AB0390E0880F991F209189
:1027A000A7033091A803820F931F2091AC03DC0193
:1027B000ED91FC91B6E02B9FE00DF11D112484E01A
:1027C00090E093838283A9CFE0E1EE16F10409F053
:1027D00067CE0E94E40264CE8091DE02811119C0AE
:1027E0000E94FF076093D6027093D7028093D802AD
:1027F0009093D90244E150E060E070E04093DA0247
:102800005093DB026093DC027093DD0281E08093E1
:10281000DE0286ED92E00E944F0B882309F440CE41
:10282000DECE8091DE02811119C00E94FF07609305
:10283000D6027093D7028093D8029093D90264E1B4
:1028400070E080E090E06093DA027093DB028093A6
:10285000DC029093DD0281E08093DE0286ED92E05F
:102860000E944F0B81110E9423011092AE0310921F
:10287000AD03D5CDDB018F939F930E94A114BF912F
:10288000AF91A29F800D911DA39F900DB29F900DBF
:1028900011240895AA1BBB1B51E107C0AA1FBB1F2F
:1028A000A617B70710F0A61BB70B881F991F5A95DC
:1028B000A9F780959095BC01CD01089597FB072E4F
:1028C00016F4009407D077FD09D00E944A1407FC43
:1028D00005D03EF4909581959F4F08957095619530
:1028E0007F4F0895A1E21A2EAA1BBB1BFD010DC04C
:1028F000AA1FBB1FEE1FFF1FA217B307E407F507B0
:1029000020F0A21BB30BE40BF50B661F771F881F8B
:10291000991F1A9469F760957095809590959B0121
:10292000AC01BD01CF010895EE0FFF1F0590F4919A
:10293000E02D09940E94AC14B7FF0895821B930BFD
:1029400008950E94AC14A59F900DB49F900DA49F74
:10295000800D911D11240895A29FB001B39FC00165
:10296000A39F700D811D1124911DB29F700D811DBB
:102970001124911D08950F931F93CF93DF938230FD
:10298000910510F482E090E0E0911904F0911A04AE
:1029900030E020E0B0E0A0E0309799F42115310557
:1029A00009F44AC0281B390B24303105D8F58A8137
:1029B0009B816115710589F1FB0193838283FE017F
:1029C00011C0408151810281138148175907E0F0FD
:1029D0004817590799F4109761F012960C931297C3
:1029E00013961C933296CF01DF91CF911F910F91D7
:1029F00008950093190410931A04F4CF211531059A
:102A000051F04217530738F0A901DB019A01BD01CB
:102A1000DF01F801C1CFEF01F9CF90931A04809341
:102A20001904CDCFFE01E20FF31F81939193225041
:102A3000310939832883D7CF2091170430911804A6
:102A4000232B41F420913402309135023093180445
:102A50002093170420913202309133022115310561
:102A600041F42DB73EB74091360250913702241BF6
:102A7000350BE0911704F0911804E217F307A0F466
:102A80002E1B3F0B2817390778F0AC014E5F5F4FC4
:102A90002417350748F04E0F5F1F509318044093DA
:102AA0001704819391939FCFF0E0E0E09CCFCF9308
:102AB000DF930097E9F0FC01329713821282A09114
:102AC0001904B0911A04ED0130E020E01097A1F450
:102AD00020813181820F931F2091170430911804B7
:102AE0002817390709F061C0F0931804E093170420
:102AF000DF91CF910895EA01CE17DF07E8F54A810B
:102B00005B819E0141155105B1F7E901FB83EA8321
:102B100049915991C40FD51FEC17FD0761F48081CD
:102B200091810296840F951FE901998388838281A0
:102B300093819B838A83F0E0E0E012968D919C91D3
:102B400013970097B9F52D913C911197CD010296FD
:102B5000820F931F2091170430911804281739070A
:102B600039F6309751F510921A0410921904B09367
:102B70001804A0931704BCCFD383C2834081518132
:102B8000840F951FC817D90761F44E5F5F4F888186
:102B90009981480F591F518340838A819B81938378
:102BA00082832115310509F0B0CFF0931A04E09328
:102BB00019049ECFFD01DC01C0CF13821282D7CF52
:0E2BC00081E090E0F8940C94E515F894FFCFB6
:102BCE0000000000000000000000000000000000F7
:102BDE0000000000000000000000000000000000E7
:102BEE0000000000000000000000000000000000D7
:102BFE0000000000000000000001010101010000C2
:102C0E0000000000000000000000000000000000B6
:102C1E0000000000000101010101000000000000A1
:102C2E000000000000000000000000000000000096
:102C3E000000000000000000000000000000000086
:102C4E000000000000000000000000000000000076
:102C5E000101010000000000000000000000000063
:102C6E000000000001010100000000010000000052
:102C7E000000000000000000000000000000000046
:102C8E000000000000000000000000000000000036
:102C9E000000000000000000000000000100010024
:102CAE000000000000000000000000000000000016
:102CBE000000000000010101010000000000000002
:102CCE0000000000000000000000000000000000F6
:102CDE0000000000000000000000000000000000E6
:102CEE00000000000101FFFFFFFF00E100000000F7
:102CFE00000000001B04800000000000820B820B0D
:102D0E00820B2B0B270B240B00000000E10A9D0AFF
:102D1E009B0A2B0B270B80064808000D0E1B1C2947
:102D2E002A010C0F1A1D282B020B10191E272C031B
:102D3E000A11181F262D0409121720252E05081317
:102D4E001621242F0607141522233000C18081007E
:102D5E000000000000003A057A075B055005A1054A
:042D6E005F057D057B
:00000001FF
